{
	"contracts/SimpleStorage.sol": {
		"SimpleStorage": {
			"abi": [
				{
					"inputs": [
						{
							"internalType": "uint256",
							"name": "_favouriteNumber",
							"type": "uint256"
						},
						{
							"internalType": "string",
							"name": "_name",
							"type": "string"
						}
					],
					"name": "addPeorson",
					"outputs": [],
					"stateMutability": "nonpayable",
					"type": "function"
				},
				{
					"inputs": [],
					"name": "favoriteNumber",
					"outputs": [
						{
							"internalType": "uint256",
							"name": "",
							"type": "uint256"
						}
					],
					"stateMutability": "view",
					"type": "function"
				},
				{
					"inputs": [
						{
							"internalType": "string",
							"name": "",
							"type": "string"
						}
					],
					"name": "nameToFavouriteNumber",
					"outputs": [
						{
							"internalType": "uint256",
							"name": "",
							"type": "uint256"
						}
					],
					"stateMutability": "view",
					"type": "function"
				},
				{
					"inputs": [
						{
							"internalType": "uint256",
							"name": "",
							"type": "uint256"
						}
					],
					"name": "people",
					"outputs": [
						{
							"internalType": "uint256",
							"name": "favoriteNumber",
							"type": "uint256"
						},
						{
							"internalType": "string",
							"name": "name",
							"type": "string"
						}
					],
					"stateMutability": "view",
					"type": "function"
				},
				{
					"inputs": [],
					"name": "retrieve",
					"outputs": [
						{
							"internalType": "uint256",
							"name": "",
							"type": "uint256"
						}
					],
					"stateMutability": "view",
					"type": "function"
				},
				{
					"inputs": [
						{
							"internalType": "uint256",
							"name": "_favouriteNumber",
							"type": "uint256"
						}
					],
					"name": "store",
					"outputs": [],
					"stateMutability": "nonpayable",
					"type": "function"
				}
			],
			"devdoc": {
				"kind": "dev",
				"methods": {},
				"version": 1
			},
			"evm": {
				"assembly": "    /* \"contracts/SimpleStorage.sol\":82:787  contract SimpleStorage { ... */\n  mstore(0x40, 0x80)\n  callvalue\n  dup1\n  iszero\n  tag_1\n  jumpi\n  0x00\n  dup1\n  revert\ntag_1:\n  pop\n  dataSize(sub_0)\n  dup1\n  dataOffset(sub_0)\n  0x00\n  codecopy\n  0x00\n  return\nstop\n\nsub_0: assembly {\n        /* \"contracts/SimpleStorage.sol\":82:787  contract SimpleStorage { ... */\n      mstore(0x40, 0x80)\n      callvalue\n      dup1\n      iszero\n      tag_1\n      jumpi\n      0x00\n      dup1\n      revert\n    tag_1:\n      pop\n      jumpi(tag_2, lt(calldatasize, 0x04))\n      shr(0xe0, calldataload(0x00))\n      dup1\n      0x2e64cec1\n      eq\n      tag_3\n      jumpi\n      dup1\n      0x42c00697\n      eq\n      tag_4\n      jumpi\n      dup1\n      0x471f7cdf\n      eq\n      tag_5\n      jumpi\n      dup1\n      0x6057361d\n      eq\n      tag_6\n      jumpi\n      dup1\n      0x9e7a13ad\n      eq\n      tag_7\n      jumpi\n      dup1\n      0xb2ac62ef\n      eq\n      tag_8\n      jumpi\n    tag_2:\n      0x00\n      dup1\n      revert\n        /* \"contracts/SimpleStorage.sol\":489:578  function retrieve() public view returns (uint256){... */\n    tag_3:\n      tag_9\n      tag_10\n      jump\t// in\n    tag_9:\n      mload(0x40)\n      tag_11\n      swap2\n      swap1\n      tag_12\n      jump\t// in\n    tag_11:\n      mload(0x40)\n      dup1\n      swap2\n      sub\n      swap1\n      return\n        /* \"contracts/SimpleStorage.sol\":586:784  function addPeorson(uint256 _favouriteNumber, string memory _name ) public{ ... */\n    tag_4:\n      tag_13\n      0x04\n      dup1\n      calldatasize\n      sub\n      dup2\n      add\n      swap1\n      tag_14\n      swap2\n      swap1\n      tag_15\n      jump\t// in\n    tag_14:\n      tag_16\n      jump\t// in\n    tag_13:\n      stop\n        /* \"contracts/SimpleStorage.sol\":113:142  uint256 public favoriteNumber */\n    tag_5:\n      tag_17\n      tag_18\n      jump\t// in\n    tag_17:\n      mload(0x40)\n      tag_19\n      swap2\n      swap1\n      tag_12\n      jump\t// in\n    tag_19:\n      mload(0x40)\n      dup1\n      swap2\n      sub\n      swap1\n      return\n        /* \"contracts/SimpleStorage.sol\":368:477  function store(uint256 _favouriteNumber) public virtual { ... */\n    tag_6:\n      tag_20\n      0x04\n      dup1\n      calldatasize\n      sub\n      dup2\n      add\n      swap1\n      tag_21\n      swap2\n      swap1\n      tag_22\n      jump\t// in\n    tag_21:\n      tag_23\n      jump\t// in\n    tag_20:\n      stop\n        /* \"contracts/SimpleStorage.sol\":298:320  People[] public people */\n    tag_7:\n      tag_24\n      0x04\n      dup1\n      calldatasize\n      sub\n      dup2\n      add\n      swap1\n      tag_25\n      swap2\n      swap1\n      tag_22\n      jump\t// in\n    tag_25:\n      tag_26\n      jump\t// in\n    tag_24:\n      mload(0x40)\n      tag_27\n      swap3\n      swap2\n      swap1\n      tag_28\n      jump\t// in\n    tag_27:\n      mload(0x40)\n      dup1\n      swap2\n      sub\n      swap1\n      return\n        /* \"contracts/SimpleStorage.sol\":149:204  mapping(string => uint256) public nameToFavouriteNumber */\n    tag_8:\n      tag_29\n      0x04\n      dup1\n      calldatasize\n      sub\n      dup2\n      add\n      swap1\n      tag_30\n      swap2\n      swap1\n      tag_31\n      jump\t// in\n    tag_30:\n      tag_32\n      jump\t// in\n    tag_29:\n      mload(0x40)\n      tag_33\n      swap2\n      swap1\n      tag_12\n      jump\t// in\n    tag_33:\n      mload(0x40)\n      dup1\n      swap2\n      sub\n      swap1\n      return\n        /* \"contracts/SimpleStorage.sol\":489:578  function retrieve() public view returns (uint256){... */\n    tag_10:\n        /* \"contracts/SimpleStorage.sol\":530:537  uint256 */\n      0x00\n        /* \"contracts/SimpleStorage.sol\":556:570  favoriteNumber */\n      dup1\n      sload\n        /* \"contracts/SimpleStorage.sol\":549:570  return favoriteNumber */\n      swap1\n      pop\n        /* \"contracts/SimpleStorage.sol\":489:578  function retrieve() public view returns (uint256){... */\n      swap1\n      jump\t// out\n        /* \"contracts/SimpleStorage.sol\":586:784  function addPeorson(uint256 _favouriteNumber, string memory _name ) public{ ... */\n    tag_16:\n        /* \"contracts/SimpleStorage.sol\":672:678  people */\n      0x02\n        /* \"contracts/SimpleStorage.sol\":684:715  People(_favouriteNumber, _name) */\n      mload(0x40)\n      dup1\n      0x40\n      add\n      0x40\n      mstore\n      dup1\n        /* \"contracts/SimpleStorage.sol\":691:707  _favouriteNumber */\n      dup5\n        /* \"contracts/SimpleStorage.sol\":684:715  People(_favouriteNumber, _name) */\n      dup2\n      mstore\n      0x20\n      add\n        /* \"contracts/SimpleStorage.sol\":709:714  _name */\n      dup4\n        /* \"contracts/SimpleStorage.sol\":684:715  People(_favouriteNumber, _name) */\n      dup2\n      mstore\n      pop\n        /* \"contracts/SimpleStorage.sol\":672:716  people.push(People(_favouriteNumber, _name)) */\n      swap1\n      dup1\n      0x01\n      dup2\n      sload\n      add\n      dup1\n      dup3\n      sstore\n      dup1\n      swap2\n      pop\n      pop\n      0x01\n      swap1\n      sub\n      swap1\n      0x00\n      mstore\n      keccak256(0x00, 0x20)\n      swap1\n      0x02\n      mul\n      add\n      0x00\n      swap1\n      swap2\n      swap1\n      swap2\n      swap1\n      swap2\n      pop\n      0x00\n      dup3\n      add\n      mload\n      dup2\n      0x00\n      add\n      sstore\n      0x20\n      dup3\n      add\n      mload\n      dup2\n      0x01\n      add\n      swap1\n      dup2\n      tag_37\n      swap2\n      swap1\n      tag_38\n      jump\t// in\n    tag_37:\n      pop\n      pop\n      pop\n        /* \"contracts/SimpleStorage.sol\":760:776  _favouriteNumber */\n      dup2\n        /* \"contracts/SimpleStorage.sol\":729:750  nameToFavouriteNumber */\n      0x01\n        /* \"contracts/SimpleStorage.sol\":751:756  _name */\n      dup3\n        /* \"contracts/SimpleStorage.sol\":729:757  nameToFavouriteNumber[_name] */\n      mload(0x40)\n      tag_39\n      swap2\n      swap1\n      tag_40\n      jump\t// in\n    tag_39:\n      swap1\n      dup2\n      mstore\n      0x20\n      add\n      mload(0x40)\n      dup1\n      swap2\n      sub\n      swap1\n      keccak256\n        /* \"contracts/SimpleStorage.sol\":729:776  nameToFavouriteNumber[_name] = _favouriteNumber */\n      dup2\n      swap1\n      sstore\n      pop\n        /* \"contracts/SimpleStorage.sol\":586:784  function addPeorson(uint256 _favouriteNumber, string memory _name ) public{ ... */\n      pop\n      pop\n      jump\t// out\n        /* \"contracts/SimpleStorage.sol\":113:142  uint256 public favoriteNumber */\n    tag_18:\n      sload(0x00)\n      dup2\n      jump\t// out\n        /* \"contracts/SimpleStorage.sol\":368:477  function store(uint256 _favouriteNumber) public virtual { ... */\n    tag_23:\n        /* \"contracts/SimpleStorage.sol\":453:469  _favouriteNumber */\n      dup1\n        /* \"contracts/SimpleStorage.sol\":436:450  favoriteNumber */\n      0x00\n        /* \"contracts/SimpleStorage.sol\":436:469  favoriteNumber = _favouriteNumber */\n      dup2\n      swap1\n      sstore\n      pop\n        /* \"contracts/SimpleStorage.sol\":368:477  function store(uint256 _favouriteNumber) public virtual { ... */\n      pop\n      jump\t// out\n        /* \"contracts/SimpleStorage.sol\":298:320  People[] public people */\n    tag_26:\n      0x02\n      dup2\n      dup2\n      sload\n      dup2\n      lt\n      tag_42\n      jumpi\n      0x00\n      dup1\n      revert\n    tag_42:\n      swap1\n      0x00\n      mstore\n      keccak256(0x00, 0x20)\n      swap1\n      0x02\n      mul\n      add\n      0x00\n      swap2\n      pop\n      swap1\n      pop\n      dup1\n      0x00\n      add\n      sload\n      swap1\n      dup1\n      0x01\n      add\n      dup1\n      sload\n      tag_44\n      swap1\n      tag_45\n      jump\t// in\n    tag_44:\n      dup1\n      0x1f\n      add\n      0x20\n      dup1\n      swap2\n      div\n      mul\n      0x20\n      add\n      mload(0x40)\n      swap1\n      dup2\n      add\n      0x40\n      mstore\n      dup1\n      swap3\n      swap2\n      swap1\n      dup2\n      dup2\n      mstore\n      0x20\n      add\n      dup3\n      dup1\n      sload\n      tag_46\n      swap1\n      tag_45\n      jump\t// in\n    tag_46:\n      dup1\n      iszero\n      tag_47\n      jumpi\n      dup1\n      0x1f\n      lt\n      tag_48\n      jumpi\n      0x0100\n      dup1\n      dup4\n      sload\n      div\n      mul\n      dup4\n      mstore\n      swap2\n      0x20\n      add\n      swap2\n      jump(tag_47)\n    tag_48:\n      dup3\n      add\n      swap2\n      swap1\n      0x00\n      mstore\n      keccak256(0x00, 0x20)\n      swap1\n    tag_49:\n      dup2\n      sload\n      dup2\n      mstore\n      swap1\n      0x01\n      add\n      swap1\n      0x20\n      add\n      dup1\n      dup4\n      gt\n      tag_49\n      jumpi\n      dup3\n      swap1\n      sub\n      0x1f\n      and\n      dup3\n      add\n      swap2\n    tag_47:\n      pop\n      pop\n      pop\n      pop\n      pop\n      swap1\n      pop\n      dup3\n      jump\t// out\n        /* \"contracts/SimpleStorage.sol\":149:204  mapping(string => uint256) public nameToFavouriteNumber */\n    tag_32:\n      0x01\n      dup2\n      dup1\n      mload\n      0x20\n      dup2\n      add\n      dup3\n      add\n      dup1\n      mload\n      dup5\n      dup3\n      mstore\n      0x20\n      dup4\n      add\n      0x20\n      dup6\n      add\n      keccak256\n      dup2\n      dup4\n      mstore\n      dup1\n      swap6\n      pop\n      pop\n      pop\n      pop\n      pop\n      pop\n      0x00\n      swap2\n      pop\n      swap1\n      pop\n      sload\n      dup2\n      jump\t// out\n        /* \"#utility.yul\":7:84   */\n    tag_50:\n        /* \"#utility.yul\":44:51   */\n      0x00\n        /* \"#utility.yul\":73:78   */\n      dup2\n        /* \"#utility.yul\":62:78   */\n      swap1\n      pop\n        /* \"#utility.yul\":7:84   */\n      swap2\n      swap1\n      pop\n      jump\t// out\n        /* \"#utility.yul\":90:208   */\n    tag_51:\n        /* \"#utility.yul\":177:201   */\n      tag_92\n        /* \"#utility.yul\":195:200   */\n      dup2\n        /* \"#utility.yul\":177:201   */\n      tag_50\n      jump\t// in\n    tag_92:\n        /* \"#utility.yul\":172:175   */\n      dup3\n        /* \"#utility.yul\":165:202   */\n      mstore\n        /* \"#utility.yul\":90:208   */\n      pop\n      pop\n      jump\t// out\n        /* \"#utility.yul\":214:436   */\n    tag_12:\n        /* \"#utility.yul\":307:311   */\n      0x00\n        /* \"#utility.yul\":345:347   */\n      0x20\n        /* \"#utility.yul\":334:343   */\n      dup3\n        /* \"#utility.yul\":330:348   */\n      add\n        /* \"#utility.yul\":322:348   */\n      swap1\n      pop\n        /* \"#utility.yul\":358:429   */\n      tag_94\n        /* \"#utility.yul\":426:427   */\n      0x00\n        /* \"#utility.yul\":415:424   */\n      dup4\n        /* \"#utility.yul\":411:428   */\n      add\n        /* \"#utility.yul\":402:408   */\n      dup5\n        /* \"#utility.yul\":358:429   */\n      tag_51\n      jump\t// in\n    tag_94:\n        /* \"#utility.yul\":214:436   */\n      swap3\n      swap2\n      pop\n      pop\n      jump\t// out\n        /* \"#utility.yul\":442:517   */\n    tag_52:\n        /* \"#utility.yul\":475:481   */\n      0x00\n        /* \"#utility.yul\":508:510   */\n      0x40\n        /* \"#utility.yul\":502:511   */\n      mload\n        /* \"#utility.yul\":492:511   */\n      swap1\n      pop\n        /* \"#utility.yul\":442:517   */\n      swap1\n      jump\t// out\n        /* \"#utility.yul\":523:640   */\n    tag_53:\n        /* \"#utility.yul\":632:633   */\n      0x00\n        /* \"#utility.yul\":629:630   */\n      dup1\n        /* \"#utility.yul\":622:634   */\n      revert\n        /* \"#utility.yul\":646:763   */\n    tag_54:\n        /* \"#utility.yul\":755:756   */\n      0x00\n        /* \"#utility.yul\":752:753   */\n      dup1\n        /* \"#utility.yul\":745:757   */\n      revert\n        /* \"#utility.yul\":769:891   */\n    tag_55:\n        /* \"#utility.yul\":842:866   */\n      tag_99\n        /* \"#utility.yul\":860:865   */\n      dup2\n        /* \"#utility.yul\":842:866   */\n      tag_50\n      jump\t// in\n    tag_99:\n        /* \"#utility.yul\":835:840   */\n      dup2\n        /* \"#utility.yul\":832:867   */\n      eq\n        /* \"#utility.yul\":822:885   */\n      tag_100\n      jumpi\n        /* \"#utility.yul\":881:882   */\n      0x00\n        /* \"#utility.yul\":878:879   */\n      dup1\n        /* \"#utility.yul\":871:883   */\n      revert\n        /* \"#utility.yul\":822:885   */\n    tag_100:\n        /* \"#utility.yul\":769:891   */\n      pop\n      jump\t// out\n        /* \"#utility.yul\":897:1036   */\n    tag_56:\n        /* \"#utility.yul\":943:948   */\n      0x00\n        /* \"#utility.yul\":981:987   */\n      dup2\n        /* \"#utility.yul\":968:988   */\n      calldataload\n        /* \"#utility.yul\":959:988   */\n      swap1\n      pop\n        /* \"#utility.yul\":997:1030   */\n      tag_102\n        /* \"#utility.yul\":1024:1029   */\n      dup2\n        /* \"#utility.yul\":997:1030   */\n      tag_55\n      jump\t// in\n    tag_102:\n        /* \"#utility.yul\":897:1036   */\n      swap3\n      swap2\n      pop\n      pop\n      jump\t// out\n        /* \"#utility.yul\":1042:1159   */\n    tag_57:\n        /* \"#utility.yul\":1151:1152   */\n      0x00\n        /* \"#utility.yul\":1148:1149   */\n      dup1\n        /* \"#utility.yul\":1141:1153   */\n      revert\n        /* \"#utility.yul\":1165:1282   */\n    tag_58:\n        /* \"#utility.yul\":1274:1275   */\n      0x00\n        /* \"#utility.yul\":1271:1272   */\n      dup1\n        /* \"#utility.yul\":1264:1276   */\n      revert\n        /* \"#utility.yul\":1288:1390   */\n    tag_59:\n        /* \"#utility.yul\":1329:1335   */\n      0x00\n        /* \"#utility.yul\":1380:1382   */\n      0x1f\n        /* \"#utility.yul\":1376:1383   */\n      not\n        /* \"#utility.yul\":1371:1373   */\n      0x1f\n        /* \"#utility.yul\":1364:1369   */\n      dup4\n        /* \"#utility.yul\":1360:1374   */\n      add\n        /* \"#utility.yul\":1356:1384   */\n      and\n        /* \"#utility.yul\":1346:1384   */\n      swap1\n      pop\n        /* \"#utility.yul\":1288:1390   */\n      swap2\n      swap1\n      pop\n      jump\t// out\n        /* \"#utility.yul\":1396:1576   */\n    tag_60:\n        /* \"#utility.yul\":1444:1521   */\n      0x4e487b7100000000000000000000000000000000000000000000000000000000\n        /* \"#utility.yul\":1441:1442   */\n      0x00\n        /* \"#utility.yul\":1434:1522   */\n      mstore\n        /* \"#utility.yul\":1541:1545   */\n      0x41\n        /* \"#utility.yul\":1538:1539   */\n      0x04\n        /* \"#utility.yul\":1531:1546   */\n      mstore\n        /* \"#utility.yul\":1565:1569   */\n      0x24\n        /* \"#utility.yul\":1562:1563   */\n      0x00\n        /* \"#utility.yul\":1555:1570   */\n      revert\n        /* \"#utility.yul\":1582:1863   */\n    tag_61:\n        /* \"#utility.yul\":1665:1692   */\n      tag_108\n        /* \"#utility.yul\":1687:1691   */\n      dup3\n        /* \"#utility.yul\":1665:1692   */\n      tag_59\n      jump\t// in\n    tag_108:\n        /* \"#utility.yul\":1657:1663   */\n      dup2\n        /* \"#utility.yul\":1653:1693   */\n      add\n        /* \"#utility.yul\":1795:1801   */\n      dup2\n        /* \"#utility.yul\":1783:1793   */\n      dup2\n        /* \"#utility.yul\":1780:1802   */\n      lt\n        /* \"#utility.yul\":1759:1777   */\n      0xffffffffffffffff\n        /* \"#utility.yul\":1747:1757   */\n      dup3\n        /* \"#utility.yul\":1744:1778   */\n      gt\n        /* \"#utility.yul\":1741:1803   */\n      or\n        /* \"#utility.yul\":1738:1826   */\n      iszero\n      tag_109\n      jumpi\n        /* \"#utility.yul\":1806:1824   */\n      tag_110\n      tag_60\n      jump\t// in\n    tag_110:\n        /* \"#utility.yul\":1738:1826   */\n    tag_109:\n        /* \"#utility.yul\":1846:1856   */\n      dup1\n        /* \"#utility.yul\":1842:1844   */\n      0x40\n        /* \"#utility.yul\":1835:1857   */\n      mstore\n        /* \"#utility.yul\":1625:1863   */\n      pop\n        /* \"#utility.yul\":1582:1863   */\n      pop\n      pop\n      jump\t// out\n        /* \"#utility.yul\":1869:1998   */\n    tag_62:\n        /* \"#utility.yul\":1903:1909   */\n      0x00\n        /* \"#utility.yul\":1930:1950   */\n      tag_112\n      tag_52\n      jump\t// in\n    tag_112:\n        /* \"#utility.yul\":1920:1950   */\n      swap1\n      pop\n        /* \"#utility.yul\":1959:1992   */\n      tag_113\n        /* \"#utility.yul\":1987:1991   */\n      dup3\n        /* \"#utility.yul\":1979:1985   */\n      dup3\n        /* \"#utility.yul\":1959:1992   */\n      tag_61\n      jump\t// in\n    tag_113:\n        /* \"#utility.yul\":1869:1998   */\n      swap2\n      swap1\n      pop\n      jump\t// out\n        /* \"#utility.yul\":2004:2312   */\n    tag_63:\n        /* \"#utility.yul\":2066:2070   */\n      0x00\n        /* \"#utility.yul\":2156:2174   */\n      0xffffffffffffffff\n        /* \"#utility.yul\":2148:2154   */\n      dup3\n        /* \"#utility.yul\":2145:2175   */\n      gt\n        /* \"#utility.yul\":2142:2198   */\n      iszero\n      tag_115\n      jumpi\n        /* \"#utility.yul\":2178:2196   */\n      tag_116\n      tag_60\n      jump\t// in\n    tag_116:\n        /* \"#utility.yul\":2142:2198   */\n    tag_115:\n        /* \"#utility.yul\":2216:2245   */\n      tag_117\n        /* \"#utility.yul\":2238:2244   */\n      dup3\n        /* \"#utility.yul\":2216:2245   */\n      tag_59\n      jump\t// in\n    tag_117:\n        /* \"#utility.yul\":2208:2245   */\n      swap1\n      pop\n        /* \"#utility.yul\":2300:2304   */\n      0x20\n        /* \"#utility.yul\":2294:2298   */\n      dup2\n        /* \"#utility.yul\":2290:2305   */\n      add\n        /* \"#utility.yul\":2282:2305   */\n      swap1\n      pop\n        /* \"#utility.yul\":2004:2312   */\n      swap2\n      swap1\n      pop\n      jump\t// out\n        /* \"#utility.yul\":2318:2464   */\n    tag_64:\n        /* \"#utility.yul\":2415:2421   */\n      dup3\n        /* \"#utility.yul\":2410:2413   */\n      dup2\n        /* \"#utility.yul\":2405:2408   */\n      dup4\n        /* \"#utility.yul\":2392:2422   */\n      calldatacopy\n        /* \"#utility.yul\":2456:2457   */\n      0x00\n        /* \"#utility.yul\":2447:2453   */\n      dup4\n        /* \"#utility.yul\":2442:2445   */\n      dup4\n        /* \"#utility.yul\":2438:2454   */\n      add\n        /* \"#utility.yul\":2431:2458   */\n      mstore\n        /* \"#utility.yul\":2318:2464   */\n      pop\n      pop\n      pop\n      jump\t// out\n        /* \"#utility.yul\":2470:2895   */\n    tag_65:\n        /* \"#utility.yul\":2548:2553   */\n      0x00\n        /* \"#utility.yul\":2573:2639   */\n      tag_120\n        /* \"#utility.yul\":2589:2638   */\n      tag_121\n        /* \"#utility.yul\":2631:2637   */\n      dup5\n        /* \"#utility.yul\":2589:2638   */\n      tag_63\n      jump\t// in\n    tag_121:\n        /* \"#utility.yul\":2573:2639   */\n      tag_62\n      jump\t// in\n    tag_120:\n        /* \"#utility.yul\":2564:2639   */\n      swap1\n      pop\n        /* \"#utility.yul\":2662:2668   */\n      dup3\n        /* \"#utility.yul\":2655:2660   */\n      dup2\n        /* \"#utility.yul\":2648:2669   */\n      mstore\n        /* \"#utility.yul\":2700:2704   */\n      0x20\n        /* \"#utility.yul\":2693:2698   */\n      dup2\n        /* \"#utility.yul\":2689:2705   */\n      add\n        /* \"#utility.yul\":2738:2741   */\n      dup5\n        /* \"#utility.yul\":2729:2735   */\n      dup5\n        /* \"#utility.yul\":2724:2727   */\n      dup5\n        /* \"#utility.yul\":2720:2736   */\n      add\n        /* \"#utility.yul\":2717:2742   */\n      gt\n        /* \"#utility.yul\":2714:2826   */\n      iszero\n      tag_122\n      jumpi\n        /* \"#utility.yul\":2745:2824   */\n      tag_123\n      tag_58\n      jump\t// in\n    tag_123:\n        /* \"#utility.yul\":2714:2826   */\n    tag_122:\n        /* \"#utility.yul\":2835:2889   */\n      tag_124\n        /* \"#utility.yul\":2882:2888   */\n      dup5\n        /* \"#utility.yul\":2877:2880   */\n      dup3\n        /* \"#utility.yul\":2872:2875   */\n      dup6\n        /* \"#utility.yul\":2835:2889   */\n      tag_64\n      jump\t// in\n    tag_124:\n        /* \"#utility.yul\":2554:2895   */\n      pop\n        /* \"#utility.yul\":2470:2895   */\n      swap4\n      swap3\n      pop\n      pop\n      pop\n      jump\t// out\n        /* \"#utility.yul\":2915:3255   */\n    tag_66:\n        /* \"#utility.yul\":2971:2976   */\n      0x00\n        /* \"#utility.yul\":3020:3023   */\n      dup3\n        /* \"#utility.yul\":3013:3017   */\n      0x1f\n        /* \"#utility.yul\":3005:3011   */\n      dup4\n        /* \"#utility.yul\":3001:3018   */\n      add\n        /* \"#utility.yul\":2997:3024   */\n      slt\n        /* \"#utility.yul\":2987:3109   */\n      tag_126\n      jumpi\n        /* \"#utility.yul\":3028:3107   */\n      tag_127\n      tag_57\n      jump\t// in\n    tag_127:\n        /* \"#utility.yul\":2987:3109   */\n    tag_126:\n        /* \"#utility.yul\":3145:3151   */\n      dup2\n        /* \"#utility.yul\":3132:3152   */\n      calldataload\n        /* \"#utility.yul\":3170:3249   */\n      tag_128\n        /* \"#utility.yul\":3245:3248   */\n      dup5\n        /* \"#utility.yul\":3237:3243   */\n      dup3\n        /* \"#utility.yul\":3230:3234   */\n      0x20\n        /* \"#utility.yul\":3222:3228   */\n      dup7\n        /* \"#utility.yul\":3218:3235   */\n      add\n        /* \"#utility.yul\":3170:3249   */\n      tag_65\n      jump\t// in\n    tag_128:\n        /* \"#utility.yul\":3161:3249   */\n      swap2\n      pop\n        /* \"#utility.yul\":2977:3255   */\n      pop\n        /* \"#utility.yul\":2915:3255   */\n      swap3\n      swap2\n      pop\n      pop\n      jump\t// out\n        /* \"#utility.yul\":3261:3915   */\n    tag_15:\n        /* \"#utility.yul\":3339:3345   */\n      0x00\n        /* \"#utility.yul\":3347:3353   */\n      dup1\n        /* \"#utility.yul\":3396:3398   */\n      0x40\n        /* \"#utility.yul\":3384:3393   */\n      dup4\n        /* \"#utility.yul\":3375:3382   */\n      dup6\n        /* \"#utility.yul\":3371:3394   */\n      sub\n        /* \"#utility.yul\":3367:3399   */\n      slt\n        /* \"#utility.yul\":3364:3483   */\n      iszero\n      tag_130\n      jumpi\n        /* \"#utility.yul\":3402:3481   */\n      tag_131\n      tag_53\n      jump\t// in\n    tag_131:\n        /* \"#utility.yul\":3364:3483   */\n    tag_130:\n        /* \"#utility.yul\":3522:3523   */\n      0x00\n        /* \"#utility.yul\":3547:3600   */\n      tag_132\n        /* \"#utility.yul\":3592:3599   */\n      dup6\n        /* \"#utility.yul\":3583:3589   */\n      dup3\n        /* \"#utility.yul\":3572:3581   */\n      dup7\n        /* \"#utility.yul\":3568:3590   */\n      add\n        /* \"#utility.yul\":3547:3600   */\n      tag_56\n      jump\t// in\n    tag_132:\n        /* \"#utility.yul\":3537:3600   */\n      swap3\n      pop\n        /* \"#utility.yul\":3493:3610   */\n      pop\n        /* \"#utility.yul\":3677:3679   */\n      0x20\n        /* \"#utility.yul\":3666:3675   */\n      dup4\n        /* \"#utility.yul\":3662:3680   */\n      add\n        /* \"#utility.yul\":3649:3681   */\n      calldataload\n        /* \"#utility.yul\":3708:3726   */\n      0xffffffffffffffff\n        /* \"#utility.yul\":3700:3706   */\n      dup2\n        /* \"#utility.yul\":3697:3727   */\n      gt\n        /* \"#utility.yul\":3694:3811   */\n      iszero\n      tag_133\n      jumpi\n        /* \"#utility.yul\":3730:3809   */\n      tag_134\n      tag_54\n      jump\t// in\n    tag_134:\n        /* \"#utility.yul\":3694:3811   */\n    tag_133:\n        /* \"#utility.yul\":3835:3898   */\n      tag_135\n        /* \"#utility.yul\":3890:3897   */\n      dup6\n        /* \"#utility.yul\":3881:3887   */\n      dup3\n        /* \"#utility.yul\":3870:3879   */\n      dup7\n        /* \"#utility.yul\":3866:3888   */\n      add\n        /* \"#utility.yul\":3835:3898   */\n      tag_66\n      jump\t// in\n    tag_135:\n        /* \"#utility.yul\":3825:3898   */\n      swap2\n      pop\n        /* \"#utility.yul\":3620:3908   */\n      pop\n        /* \"#utility.yul\":3261:3915   */\n      swap3\n      pop\n      swap3\n      swap1\n      pop\n      jump\t// out\n        /* \"#utility.yul\":3921:4250   */\n    tag_22:\n        /* \"#utility.yul\":3980:3986   */\n      0x00\n        /* \"#utility.yul\":4029:4031   */\n      0x20\n        /* \"#utility.yul\":4017:4026   */\n      dup3\n        /* \"#utility.yul\":4008:4015   */\n      dup5\n        /* \"#utility.yul\":4004:4027   */\n      sub\n        /* \"#utility.yul\":4000:4032   */\n      slt\n        /* \"#utility.yul\":3997:4116   */\n      iszero\n      tag_137\n      jumpi\n        /* \"#utility.yul\":4035:4114   */\n      tag_138\n      tag_53\n      jump\t// in\n    tag_138:\n        /* \"#utility.yul\":3997:4116   */\n    tag_137:\n        /* \"#utility.yul\":4155:4156   */\n      0x00\n        /* \"#utility.yul\":4180:4233   */\n      tag_139\n        /* \"#utility.yul\":4225:4232   */\n      dup5\n        /* \"#utility.yul\":4216:4222   */\n      dup3\n        /* \"#utility.yul\":4205:4214   */\n      dup6\n        /* \"#utility.yul\":4201:4223   */\n      add\n        /* \"#utility.yul\":4180:4233   */\n      tag_56\n      jump\t// in\n    tag_139:\n        /* \"#utility.yul\":4170:4233   */\n      swap2\n      pop\n        /* \"#utility.yul\":4126:4243   */\n      pop\n        /* \"#utility.yul\":3921:4250   */\n      swap3\n      swap2\n      pop\n      pop\n      jump\t// out\n        /* \"#utility.yul\":4256:4355   */\n    tag_67:\n        /* \"#utility.yul\":4308:4314   */\n      0x00\n        /* \"#utility.yul\":4342:4347   */\n      dup2\n        /* \"#utility.yul\":4336:4348   */\n      mload\n        /* \"#utility.yul\":4326:4348   */\n      swap1\n      pop\n        /* \"#utility.yul\":4256:4355   */\n      swap2\n      swap1\n      pop\n      jump\t// out\n        /* \"#utility.yul\":4361:4530   */\n    tag_68:\n        /* \"#utility.yul\":4445:4456   */\n      0x00\n        /* \"#utility.yul\":4479:4485   */\n      dup3\n        /* \"#utility.yul\":4474:4477   */\n      dup3\n        /* \"#utility.yul\":4467:4486   */\n      mstore\n        /* \"#utility.yul\":4519:4523   */\n      0x20\n        /* \"#utility.yul\":4514:4517   */\n      dup3\n        /* \"#utility.yul\":4510:4524   */\n      add\n        /* \"#utility.yul\":4495:4524   */\n      swap1\n      pop\n        /* \"#utility.yul\":4361:4530   */\n      swap3\n      swap2\n      pop\n      pop\n      jump\t// out\n        /* \"#utility.yul\":4536:4782   */\n    tag_69:\n        /* \"#utility.yul\":4617:4618   */\n      0x00\n        /* \"#utility.yul\":4627:4740   */\n    tag_143:\n        /* \"#utility.yul\":4641:4647   */\n      dup4\n        /* \"#utility.yul\":4638:4639   */\n      dup2\n        /* \"#utility.yul\":4635:4648   */\n      lt\n        /* \"#utility.yul\":4627:4740   */\n      iszero\n      tag_145\n      jumpi\n        /* \"#utility.yul\":4726:4727   */\n      dup1\n        /* \"#utility.yul\":4721:4724   */\n      dup3\n        /* \"#utility.yul\":4717:4728   */\n      add\n        /* \"#utility.yul\":4711:4729   */\n      mload\n        /* \"#utility.yul\":4707:4708   */\n      dup2\n        /* \"#utility.yul\":4702:4705   */\n      dup5\n        /* \"#utility.yul\":4698:4709   */\n      add\n        /* \"#utility.yul\":4691:4730   */\n      mstore\n        /* \"#utility.yul\":4663:4665   */\n      0x20\n        /* \"#utility.yul\":4660:4661   */\n      dup2\n        /* \"#utility.yul\":4656:4666   */\n      add\n        /* \"#utility.yul\":4651:4666   */\n      swap1\n      pop\n        /* \"#utility.yul\":4627:4740   */\n      jump(tag_143)\n    tag_145:\n        /* \"#utility.yul\":4774:4775   */\n      0x00\n        /* \"#utility.yul\":4765:4771   */\n      dup5\n        /* \"#utility.yul\":4760:4763   */\n      dup5\n        /* \"#utility.yul\":4756:4772   */\n      add\n        /* \"#utility.yul\":4749:4776   */\n      mstore\n        /* \"#utility.yul\":4598:4782   */\n      pop\n        /* \"#utility.yul\":4536:4782   */\n      pop\n      pop\n      pop\n      jump\t// out\n        /* \"#utility.yul\":4788:5165   */\n    tag_70:\n        /* \"#utility.yul\":4876:4879   */\n      0x00\n        /* \"#utility.yul\":4904:4943   */\n      tag_147\n        /* \"#utility.yul\":4937:4942   */\n      dup3\n        /* \"#utility.yul\":4904:4943   */\n      tag_67\n      jump\t// in\n    tag_147:\n        /* \"#utility.yul\":4959:5030   */\n      tag_148\n        /* \"#utility.yul\":5023:5029   */\n      dup2\n        /* \"#utility.yul\":5018:5021   */\n      dup6\n        /* \"#utility.yul\":4959:5030   */\n      tag_68\n      jump\t// in\n    tag_148:\n        /* \"#utility.yul\":4952:5030   */\n      swap4\n      pop\n        /* \"#utility.yul\":5039:5104   */\n      tag_149\n        /* \"#utility.yul\":5097:5103   */\n      dup2\n        /* \"#utility.yul\":5092:5095   */\n      dup6\n        /* \"#utility.yul\":5085:5089   */\n      0x20\n        /* \"#utility.yul\":5078:5083   */\n      dup7\n        /* \"#utility.yul\":5074:5090   */\n      add\n        /* \"#utility.yul\":5039:5104   */\n      tag_69\n      jump\t// in\n    tag_149:\n        /* \"#utility.yul\":5129:5158   */\n      tag_150\n        /* \"#utility.yul\":5151:5157   */\n      dup2\n        /* \"#utility.yul\":5129:5158   */\n      tag_59\n      jump\t// in\n    tag_150:\n        /* \"#utility.yul\":5124:5127   */\n      dup5\n        /* \"#utility.yul\":5120:5159   */\n      add\n        /* \"#utility.yul\":5113:5159   */\n      swap2\n      pop\n        /* \"#utility.yul\":4880:5165   */\n      pop\n        /* \"#utility.yul\":4788:5165   */\n      swap3\n      swap2\n      pop\n      pop\n      jump\t// out\n        /* \"#utility.yul\":5171:5594   */\n    tag_28:\n        /* \"#utility.yul\":5312:5316   */\n      0x00\n        /* \"#utility.yul\":5350:5352   */\n      0x40\n        /* \"#utility.yul\":5339:5348   */\n      dup3\n        /* \"#utility.yul\":5335:5353   */\n      add\n        /* \"#utility.yul\":5327:5353   */\n      swap1\n      pop\n        /* \"#utility.yul\":5363:5434   */\n      tag_152\n        /* \"#utility.yul\":5431:5432   */\n      0x00\n        /* \"#utility.yul\":5420:5429   */\n      dup4\n        /* \"#utility.yul\":5416:5433   */\n      add\n        /* \"#utility.yul\":5407:5413   */\n      dup6\n        /* \"#utility.yul\":5363:5434   */\n      tag_51\n      jump\t// in\n    tag_152:\n        /* \"#utility.yul\":5481:5490   */\n      dup2\n        /* \"#utility.yul\":5475:5479   */\n      dup2\n        /* \"#utility.yul\":5471:5491   */\n      sub\n        /* \"#utility.yul\":5466:5468   */\n      0x20\n        /* \"#utility.yul\":5455:5464   */\n      dup4\n        /* \"#utility.yul\":5451:5469   */\n      add\n        /* \"#utility.yul\":5444:5492   */\n      mstore\n        /* \"#utility.yul\":5509:5587   */\n      tag_153\n        /* \"#utility.yul\":5582:5586   */\n      dup2\n        /* \"#utility.yul\":5573:5579   */\n      dup5\n        /* \"#utility.yul\":5509:5587   */\n      tag_70\n      jump\t// in\n    tag_153:\n        /* \"#utility.yul\":5501:5587   */\n      swap1\n      pop\n        /* \"#utility.yul\":5171:5594   */\n      swap4\n      swap3\n      pop\n      pop\n      pop\n      jump\t// out\n        /* \"#utility.yul\":5600:6109   */\n    tag_31:\n        /* \"#utility.yul\":5669:5675   */\n      0x00\n        /* \"#utility.yul\":5718:5720   */\n      0x20\n        /* \"#utility.yul\":5706:5715   */\n      dup3\n        /* \"#utility.yul\":5697:5704   */\n      dup5\n        /* \"#utility.yul\":5693:5716   */\n      sub\n        /* \"#utility.yul\":5689:5721   */\n      slt\n        /* \"#utility.yul\":5686:5805   */\n      iszero\n      tag_155\n      jumpi\n        /* \"#utility.yul\":5724:5803   */\n      tag_156\n      tag_53\n      jump\t// in\n    tag_156:\n        /* \"#utility.yul\":5686:5805   */\n    tag_155:\n        /* \"#utility.yul\":5872:5873   */\n      0x00\n        /* \"#utility.yul\":5861:5870   */\n      dup3\n        /* \"#utility.yul\":5857:5874   */\n      add\n        /* \"#utility.yul\":5844:5875   */\n      calldataload\n        /* \"#utility.yul\":5902:5920   */\n      0xffffffffffffffff\n        /* \"#utility.yul\":5894:5900   */\n      dup2\n        /* \"#utility.yul\":5891:5921   */\n      gt\n        /* \"#utility.yul\":5888:6005   */\n      iszero\n      tag_157\n      jumpi\n        /* \"#utility.yul\":5924:6003   */\n      tag_158\n      tag_54\n      jump\t// in\n    tag_158:\n        /* \"#utility.yul\":5888:6005   */\n    tag_157:\n        /* \"#utility.yul\":6029:6092   */\n      tag_159\n        /* \"#utility.yul\":6084:6091   */\n      dup5\n        /* \"#utility.yul\":6075:6081   */\n      dup3\n        /* \"#utility.yul\":6064:6073   */\n      dup6\n        /* \"#utility.yul\":6060:6082   */\n      add\n        /* \"#utility.yul\":6029:6092   */\n      tag_66\n      jump\t// in\n    tag_159:\n        /* \"#utility.yul\":6019:6092   */\n      swap2\n      pop\n        /* \"#utility.yul\":5815:6102   */\n      pop\n        /* \"#utility.yul\":5600:6109   */\n      swap3\n      swap2\n      pop\n      pop\n      jump\t// out\n        /* \"#utility.yul\":6115:6295   */\n    tag_71:\n        /* \"#utility.yul\":6163:6240   */\n      0x4e487b7100000000000000000000000000000000000000000000000000000000\n        /* \"#utility.yul\":6160:6161   */\n      0x00\n        /* \"#utility.yul\":6153:6241   */\n      mstore\n        /* \"#utility.yul\":6260:6264   */\n      0x22\n        /* \"#utility.yul\":6257:6258   */\n      0x04\n        /* \"#utility.yul\":6250:6265   */\n      mstore\n        /* \"#utility.yul\":6284:6288   */\n      0x24\n        /* \"#utility.yul\":6281:6282   */\n      0x00\n        /* \"#utility.yul\":6274:6289   */\n      revert\n        /* \"#utility.yul\":6301:6621   */\n    tag_45:\n        /* \"#utility.yul\":6345:6351   */\n      0x00\n        /* \"#utility.yul\":6382:6383   */\n      0x02\n        /* \"#utility.yul\":6376:6380   */\n      dup3\n        /* \"#utility.yul\":6372:6384   */\n      div\n        /* \"#utility.yul\":6362:6384   */\n      swap1\n      pop\n        /* \"#utility.yul\":6429:6430   */\n      0x01\n        /* \"#utility.yul\":6423:6427   */\n      dup3\n        /* \"#utility.yul\":6419:6431   */\n      and\n        /* \"#utility.yul\":6450:6468   */\n      dup1\n        /* \"#utility.yul\":6440:6521   */\n      tag_162\n      jumpi\n        /* \"#utility.yul\":6506:6510   */\n      0x7f\n        /* \"#utility.yul\":6498:6504   */\n      dup3\n        /* \"#utility.yul\":6494:6511   */\n      and\n        /* \"#utility.yul\":6484:6511   */\n      swap2\n      pop\n        /* \"#utility.yul\":6440:6521   */\n    tag_162:\n        /* \"#utility.yul\":6568:6570   */\n      0x20\n        /* \"#utility.yul\":6560:6566   */\n      dup3\n        /* \"#utility.yul\":6557:6571   */\n      lt\n        /* \"#utility.yul\":6537:6555   */\n      dup2\n        /* \"#utility.yul\":6534:6572   */\n      sub\n        /* \"#utility.yul\":6531:6615   */\n      tag_163\n      jumpi\n        /* \"#utility.yul\":6587:6605   */\n      tag_164\n      tag_71\n      jump\t// in\n    tag_164:\n        /* \"#utility.yul\":6531:6615   */\n    tag_163:\n        /* \"#utility.yul\":6352:6621   */\n      pop\n        /* \"#utility.yul\":6301:6621   */\n      swap2\n      swap1\n      pop\n      jump\t// out\n        /* \"#utility.yul\":6627:6768   */\n    tag_72:\n        /* \"#utility.yul\":6676:6680   */\n      0x00\n        /* \"#utility.yul\":6699:6702   */\n      dup2\n        /* \"#utility.yul\":6691:6702   */\n      swap1\n      pop\n        /* \"#utility.yul\":6722:6725   */\n      dup2\n        /* \"#utility.yul\":6719:6720   */\n      0x00\n        /* \"#utility.yul\":6712:6726   */\n      mstore\n        /* \"#utility.yul\":6756:6760   */\n      0x20\n        /* \"#utility.yul\":6753:6754   */\n      0x00\n        /* \"#utility.yul\":6743:6761   */\n      keccak256\n        /* \"#utility.yul\":6735:6761   */\n      swap1\n      pop\n        /* \"#utility.yul\":6627:6768   */\n      swap2\n      swap1\n      pop\n      jump\t// out\n        /* \"#utility.yul\":6774:6867   */\n    tag_73:\n        /* \"#utility.yul\":6811:6817   */\n      0x00\n        /* \"#utility.yul\":6858:6860   */\n      0x20\n        /* \"#utility.yul\":6853:6855   */\n      0x1f\n        /* \"#utility.yul\":6846:6851   */\n      dup4\n        /* \"#utility.yul\":6842:6856   */\n      add\n        /* \"#utility.yul\":6838:6861   */\n      div\n        /* \"#utility.yul\":6828:6861   */\n      swap1\n      pop\n        /* \"#utility.yul\":6774:6867   */\n      swap2\n      swap1\n      pop\n      jump\t// out\n        /* \"#utility.yul\":6873:6980   */\n    tag_74:\n        /* \"#utility.yul\":6917:6925   */\n      0x00\n        /* \"#utility.yul\":6967:6972   */\n      dup3\n        /* \"#utility.yul\":6961:6965   */\n      dup3\n        /* \"#utility.yul\":6957:6973   */\n      shl\n        /* \"#utility.yul\":6936:6973   */\n      swap1\n      pop\n        /* \"#utility.yul\":6873:6980   */\n      swap3\n      swap2\n      pop\n      pop\n      jump\t// out\n        /* \"#utility.yul\":6986:7379   */\n    tag_75:\n        /* \"#utility.yul\":7055:7061   */\n      0x00\n        /* \"#utility.yul\":7105:7106   */\n      0x08\n        /* \"#utility.yul\":7093:7103   */\n      dup4\n        /* \"#utility.yul\":7089:7107   */\n      mul\n        /* \"#utility.yul\":7128:7225   */\n      tag_169\n        /* \"#utility.yul\":7158:7224   */\n      0xffffffffffffffffffffffffffffffffffffffffffffffffffffffffffffffff\n        /* \"#utility.yul\":7147:7156   */\n      dup3\n        /* \"#utility.yul\":7128:7225   */\n      tag_74\n      jump\t// in\n    tag_169:\n        /* \"#utility.yul\":7246:7285   */\n      tag_170\n        /* \"#utility.yul\":7276:7284   */\n      dup7\n        /* \"#utility.yul\":7265:7274   */\n      dup4\n        /* \"#utility.yul\":7246:7285   */\n      tag_74\n      jump\t// in\n    tag_170:\n        /* \"#utility.yul\":7234:7285   */\n      swap6\n      pop\n        /* \"#utility.yul\":7318:7322   */\n      dup1\n        /* \"#utility.yul\":7314:7323   */\n      not\n        /* \"#utility.yul\":7307:7312   */\n      dup5\n        /* \"#utility.yul\":7303:7324   */\n      and\n        /* \"#utility.yul\":7294:7324   */\n      swap4\n      pop\n        /* \"#utility.yul\":7367:7371   */\n      dup1\n        /* \"#utility.yul\":7357:7365   */\n      dup7\n        /* \"#utility.yul\":7353:7372   */\n      and\n        /* \"#utility.yul\":7346:7351   */\n      dup5\n        /* \"#utility.yul\":7343:7373   */\n      or\n        /* \"#utility.yul\":7333:7373   */\n      swap3\n      pop\n        /* \"#utility.yul\":7062:7379   */\n      pop\n      pop\n        /* \"#utility.yul\":6986:7379   */\n      swap4\n      swap3\n      pop\n      pop\n      pop\n      jump\t// out\n        /* \"#utility.yul\":7385:7445   */\n    tag_76:\n        /* \"#utility.yul\":7413:7416   */\n      0x00\n        /* \"#utility.yul\":7434:7439   */\n      dup2\n        /* \"#utility.yul\":7427:7439   */\n      swap1\n      pop\n        /* \"#utility.yul\":7385:7445   */\n      swap2\n      swap1\n      pop\n      jump\t// out\n        /* \"#utility.yul\":7451:7593   */\n    tag_77:\n        /* \"#utility.yul\":7501:7510   */\n      0x00\n        /* \"#utility.yul\":7534:7587   */\n      tag_173\n        /* \"#utility.yul\":7552:7586   */\n      tag_174\n        /* \"#utility.yul\":7561:7585   */\n      tag_175\n        /* \"#utility.yul\":7579:7584   */\n      dup5\n        /* \"#utility.yul\":7561:7585   */\n      tag_50\n      jump\t// in\n    tag_175:\n        /* \"#utility.yul\":7552:7586   */\n      tag_76\n      jump\t// in\n    tag_174:\n        /* \"#utility.yul\":7534:7587   */\n      tag_50\n      jump\t// in\n    tag_173:\n        /* \"#utility.yul\":7521:7587   */\n      swap1\n      pop\n        /* \"#utility.yul\":7451:7593   */\n      swap2\n      swap1\n      pop\n      jump\t// out\n        /* \"#utility.yul\":7599:7674   */\n    tag_78:\n        /* \"#utility.yul\":7642:7645   */\n      0x00\n        /* \"#utility.yul\":7663:7668   */\n      dup2\n        /* \"#utility.yul\":7656:7668   */\n      swap1\n      pop\n        /* \"#utility.yul\":7599:7674   */\n      swap2\n      swap1\n      pop\n      jump\t// out\n        /* \"#utility.yul\":7680:7949   */\n    tag_79:\n        /* \"#utility.yul\":7790:7829   */\n      tag_178\n        /* \"#utility.yul\":7821:7828   */\n      dup4\n        /* \"#utility.yul\":7790:7829   */\n      tag_77\n      jump\t// in\n    tag_178:\n        /* \"#utility.yul\":7851:7942   */\n      tag_179\n        /* \"#utility.yul\":7900:7941   */\n      tag_180\n        /* \"#utility.yul\":7924:7940   */\n      dup3\n        /* \"#utility.yul\":7900:7941   */\n      tag_78\n      jump\t// in\n    tag_180:\n        /* \"#utility.yul\":7892:7898   */\n      dup5\n        /* \"#utility.yul\":7885:7889   */\n      dup5\n        /* \"#utility.yul\":7879:7890   */\n      sload\n        /* \"#utility.yul\":7851:7942   */\n      tag_75\n      jump\t// in\n    tag_179:\n        /* \"#utility.yul\":7845:7849   */\n      dup3\n        /* \"#utility.yul\":7838:7943   */\n      sstore\n        /* \"#utility.yul\":7756:7949   */\n      pop\n        /* \"#utility.yul\":7680:7949   */\n      pop\n      pop\n      pop\n      jump\t// out\n        /* \"#utility.yul\":7955:8028   */\n    tag_80:\n        /* \"#utility.yul\":8000:8003   */\n      0x00\n        /* \"#utility.yul\":7955:8028   */\n      swap1\n      jump\t// out\n        /* \"#utility.yul\":8034:8223   */\n    tag_81:\n        /* \"#utility.yul\":8111:8143   */\n      tag_183\n      tag_80\n      jump\t// in\n    tag_183:\n        /* \"#utility.yul\":8152:8217   */\n      tag_184\n        /* \"#utility.yul\":8210:8216   */\n      dup2\n        /* \"#utility.yul\":8202:8208   */\n      dup5\n        /* \"#utility.yul\":8196:8200   */\n      dup5\n        /* \"#utility.yul\":8152:8217   */\n      tag_79\n      jump\t// in\n    tag_184:\n        /* \"#utility.yul\":8087:8223   */\n      pop\n        /* \"#utility.yul\":8034:8223   */\n      pop\n      pop\n      jump\t// out\n        /* \"#utility.yul\":8229:8415   */\n    tag_82:\n        /* \"#utility.yul\":8289:8409   */\n    tag_186:\n        /* \"#utility.yul\":8306:8309   */\n      dup2\n        /* \"#utility.yul\":8299:8304   */\n      dup2\n        /* \"#utility.yul\":8296:8310   */\n      lt\n        /* \"#utility.yul\":8289:8409   */\n      iszero\n      tag_188\n      jumpi\n        /* \"#utility.yul\":8360:8399   */\n      tag_189\n        /* \"#utility.yul\":8397:8398   */\n      0x00\n        /* \"#utility.yul\":8390:8395   */\n      dup3\n        /* \"#utility.yul\":8360:8399   */\n      tag_81\n      jump\t// in\n    tag_189:\n        /* \"#utility.yul\":8333:8334   */\n      0x01\n        /* \"#utility.yul\":8326:8331   */\n      dup2\n        /* \"#utility.yul\":8322:8335   */\n      add\n        /* \"#utility.yul\":8313:8335   */\n      swap1\n      pop\n        /* \"#utility.yul\":8289:8409   */\n      jump(tag_186)\n    tag_188:\n        /* \"#utility.yul\":8229:8415   */\n      pop\n      pop\n      jump\t// out\n        /* \"#utility.yul\":8421:8964   */\n    tag_83:\n        /* \"#utility.yul\":8522:8524   */\n      0x1f\n        /* \"#utility.yul\":8517:8520   */\n      dup3\n        /* \"#utility.yul\":8514:8525   */\n      gt\n        /* \"#utility.yul\":8511:8957   */\n      iszero\n      tag_191\n      jumpi\n        /* \"#utility.yul\":8556:8594   */\n      tag_192\n        /* \"#utility.yul\":8588:8593   */\n      dup2\n        /* \"#utility.yul\":8556:8594   */\n      tag_72\n      jump\t// in\n    tag_192:\n        /* \"#utility.yul\":8640:8669   */\n      tag_193\n        /* \"#utility.yul\":8658:8668   */\n      dup5\n        /* \"#utility.yul\":8640:8669   */\n      tag_73\n      jump\t// in\n    tag_193:\n        /* \"#utility.yul\":8630:8638   */\n      dup2\n        /* \"#utility.yul\":8626:8670   */\n      add\n        /* \"#utility.yul\":8823:8825   */\n      0x20\n        /* \"#utility.yul\":8811:8821   */\n      dup6\n        /* \"#utility.yul\":8808:8826   */\n      lt\n        /* \"#utility.yul\":8805:8854   */\n      iszero\n      tag_194\n      jumpi\n        /* \"#utility.yul\":8844:8852   */\n      dup2\n        /* \"#utility.yul\":8829:8852   */\n      swap1\n      pop\n        /* \"#utility.yul\":8805:8854   */\n    tag_194:\n        /* \"#utility.yul\":8867:8947   */\n      tag_195\n        /* \"#utility.yul\":8923:8945   */\n      tag_196\n        /* \"#utility.yul\":8941:8944   */\n      dup6\n        /* \"#utility.yul\":8923:8945   */\n      tag_73\n      jump\t// in\n    tag_196:\n        /* \"#utility.yul\":8913:8921   */\n      dup4\n        /* \"#utility.yul\":8909:8946   */\n      add\n        /* \"#utility.yul\":8896:8907   */\n      dup3\n        /* \"#utility.yul\":8867:8947   */\n      tag_82\n      jump\t// in\n    tag_195:\n        /* \"#utility.yul\":8526:8957   */\n      pop\n      pop\n        /* \"#utility.yul\":8511:8957   */\n    tag_191:\n        /* \"#utility.yul\":8421:8964   */\n      pop\n      pop\n      pop\n      jump\t// out\n        /* \"#utility.yul\":8970:9087   */\n    tag_84:\n        /* \"#utility.yul\":9024:9032   */\n      0x00\n        /* \"#utility.yul\":9074:9079   */\n      dup3\n        /* \"#utility.yul\":9068:9072   */\n      dup3\n        /* \"#utility.yul\":9064:9080   */\n      shr\n        /* \"#utility.yul\":9043:9080   */\n      swap1\n      pop\n        /* \"#utility.yul\":8970:9087   */\n      swap3\n      swap2\n      pop\n      pop\n      jump\t// out\n        /* \"#utility.yul\":9093:9262   */\n    tag_85:\n        /* \"#utility.yul\":9137:9143   */\n      0x00\n        /* \"#utility.yul\":9170:9221   */\n      tag_199\n        /* \"#utility.yul\":9218:9219   */\n      0x00\n        /* \"#utility.yul\":9214:9220   */\n      not\n        /* \"#utility.yul\":9206:9211   */\n      dup5\n        /* \"#utility.yul\":9203:9204   */\n      0x08\n        /* \"#utility.yul\":9199:9212   */\n      mul\n        /* \"#utility.yul\":9170:9221   */\n      tag_84\n      jump\t// in\n    tag_199:\n        /* \"#utility.yul\":9166:9222   */\n      not\n        /* \"#utility.yul\":9251:9255   */\n      dup1\n        /* \"#utility.yul\":9245:9249   */\n      dup4\n        /* \"#utility.yul\":9241:9256   */\n      and\n        /* \"#utility.yul\":9231:9256   */\n      swap2\n      pop\n        /* \"#utility.yul\":9144:9262   */\n      pop\n        /* \"#utility.yul\":9093:9262   */\n      swap3\n      swap2\n      pop\n      pop\n      jump\t// out\n        /* \"#utility.yul\":9267:9562   */\n    tag_86:\n        /* \"#utility.yul\":9343:9347   */\n      0x00\n        /* \"#utility.yul\":9489:9518   */\n      tag_201\n        /* \"#utility.yul\":9514:9517   */\n      dup4\n        /* \"#utility.yul\":9508:9512   */\n      dup4\n        /* \"#utility.yul\":9489:9518   */\n      tag_85\n      jump\t// in\n    tag_201:\n        /* \"#utility.yul\":9481:9518   */\n      swap2\n      pop\n        /* \"#utility.yul\":9551:9554   */\n      dup3\n        /* \"#utility.yul\":9548:9549   */\n      0x02\n        /* \"#utility.yul\":9544:9555   */\n      mul\n        /* \"#utility.yul\":9538:9542   */\n      dup3\n        /* \"#utility.yul\":9535:9556   */\n      or\n        /* \"#utility.yul\":9527:9556   */\n      swap1\n      pop\n        /* \"#utility.yul\":9267:9562   */\n      swap3\n      swap2\n      pop\n      pop\n      jump\t// out\n        /* \"#utility.yul\":9567:10962   */\n    tag_38:\n        /* \"#utility.yul\":9684:9721   */\n      tag_203\n        /* \"#utility.yul\":9717:9720   */\n      dup3\n        /* \"#utility.yul\":9684:9721   */\n      tag_67\n      jump\t// in\n    tag_203:\n        /* \"#utility.yul\":9786:9804   */\n      0xffffffffffffffff\n        /* \"#utility.yul\":9778:9784   */\n      dup2\n        /* \"#utility.yul\":9775:9805   */\n      gt\n        /* \"#utility.yul\":9772:9828   */\n      iszero\n      tag_204\n      jumpi\n        /* \"#utility.yul\":9808:9826   */\n      tag_205\n      tag_60\n      jump\t// in\n    tag_205:\n        /* \"#utility.yul\":9772:9828   */\n    tag_204:\n        /* \"#utility.yul\":9852:9890   */\n      tag_206\n        /* \"#utility.yul\":9884:9888   */\n      dup3\n        /* \"#utility.yul\":9878:9889   */\n      sload\n        /* \"#utility.yul\":9852:9890   */\n      tag_45\n      jump\t// in\n    tag_206:\n        /* \"#utility.yul\":9937:10004   */\n      tag_207\n        /* \"#utility.yul\":9997:10003   */\n      dup3\n        /* \"#utility.yul\":9989:9995   */\n      dup3\n        /* \"#utility.yul\":9983:9987   */\n      dup6\n        /* \"#utility.yul\":9937:10004   */\n      tag_83\n      jump\t// in\n    tag_207:\n        /* \"#utility.yul\":10031:10032   */\n      0x00\n        /* \"#utility.yul\":10055:10059   */\n      0x20\n        /* \"#utility.yul\":10042:10059   */\n      swap1\n      pop\n        /* \"#utility.yul\":10087:10089   */\n      0x1f\n        /* \"#utility.yul\":10079:10085   */\n      dup4\n        /* \"#utility.yul\":10076:10090   */\n      gt\n        /* \"#utility.yul\":10104:10105   */\n      0x01\n        /* \"#utility.yul\":10099:10717   */\n      dup2\n      eq\n      tag_209\n      jumpi\n        /* \"#utility.yul\":10761:10762   */\n      0x00\n        /* \"#utility.yul\":10778:10784   */\n      dup5\n        /* \"#utility.yul\":10775:10852   */\n      iszero\n      tag_210\n      jumpi\n        /* \"#utility.yul\":10827:10836   */\n      dup3\n        /* \"#utility.yul\":10822:10825   */\n      dup8\n        /* \"#utility.yul\":10818:10837   */\n      add\n        /* \"#utility.yul\":10812:10838   */\n      mload\n        /* \"#utility.yul\":10803:10838   */\n      swap1\n      pop\n        /* \"#utility.yul\":10775:10852   */\n    tag_210:\n        /* \"#utility.yul\":10878:10945   */\n      tag_211\n        /* \"#utility.yul\":10938:10944   */\n      dup6\n        /* \"#utility.yul\":10931:10936   */\n      dup3\n        /* \"#utility.yul\":10878:10945   */\n      tag_86\n      jump\t// in\n    tag_211:\n        /* \"#utility.yul\":10872:10876   */\n      dup7\n        /* \"#utility.yul\":10865:10946   */\n      sstore\n        /* \"#utility.yul\":10734:10956   */\n      pop\n        /* \"#utility.yul\":10069:10956   */\n      jump(tag_208)\n        /* \"#utility.yul\":10099:10717   */\n    tag_209:\n        /* \"#utility.yul\":10151:10155   */\n      0x1f\n        /* \"#utility.yul\":10147:10156   */\n      not\n        /* \"#utility.yul\":10139:10145   */\n      dup5\n        /* \"#utility.yul\":10135:10157   */\n      and\n        /* \"#utility.yul\":10185:10222   */\n      tag_212\n        /* \"#utility.yul\":10217:10221   */\n      dup7\n        /* \"#utility.yul\":10185:10222   */\n      tag_72\n      jump\t// in\n    tag_212:\n        /* \"#utility.yul\":10244:10245   */\n      0x00\n        /* \"#utility.yul\":10258:10466   */\n    tag_213:\n        /* \"#utility.yul\":10272:10279   */\n      dup3\n        /* \"#utility.yul\":10269:10270   */\n      dup2\n        /* \"#utility.yul\":10266:10280   */\n      lt\n        /* \"#utility.yul\":10258:10466   */\n      iszero\n      tag_215\n      jumpi\n        /* \"#utility.yul\":10351:10360   */\n      dup5\n        /* \"#utility.yul\":10346:10349   */\n      dup10\n        /* \"#utility.yul\":10342:10361   */\n      add\n        /* \"#utility.yul\":10336:10362   */\n      mload\n        /* \"#utility.yul\":10328:10334   */\n      dup3\n        /* \"#utility.yul\":10321:10363   */\n      sstore\n        /* \"#utility.yul\":10402:10403   */\n      0x01\n        /* \"#utility.yul\":10394:10400   */\n      dup3\n        /* \"#utility.yul\":10390:10404   */\n      add\n        /* \"#utility.yul\":10380:10404   */\n      swap2\n      pop\n        /* \"#utility.yul\":10449:10451   */\n      0x20\n        /* \"#utility.yul\":10438:10447   */\n      dup6\n        /* \"#utility.yul\":10434:10452   */\n      add\n        /* \"#utility.yul\":10421:10452   */\n      swap5\n      pop\n        /* \"#utility.yul\":10295:10299   */\n      0x20\n        /* \"#utility.yul\":10292:10293   */\n      dup2\n        /* \"#utility.yul\":10288:10300   */\n      add\n        /* \"#utility.yul\":10283:10300   */\n      swap1\n      pop\n        /* \"#utility.yul\":10258:10466   */\n      jump(tag_213)\n    tag_215:\n        /* \"#utility.yul\":10494:10500   */\n      dup7\n        /* \"#utility.yul\":10485:10492   */\n      dup4\n        /* \"#utility.yul\":10482:10501   */\n      lt\n        /* \"#utility.yul\":10479:10658   */\n      iszero\n      tag_216\n      jumpi\n        /* \"#utility.yul\":10552:10561   */\n      dup5\n        /* \"#utility.yul\":10547:10550   */\n      dup10\n        /* \"#utility.yul\":10543:10562   */\n      add\n        /* \"#utility.yul\":10537:10563   */\n      mload\n        /* \"#utility.yul\":10595:10643   */\n      tag_217\n        /* \"#utility.yul\":10637:10641   */\n      0x1f\n        /* \"#utility.yul\":10629:10635   */\n      dup10\n        /* \"#utility.yul\":10625:10642   */\n      and\n        /* \"#utility.yul\":10614:10623   */\n      dup3\n        /* \"#utility.yul\":10595:10643   */\n      tag_85\n      jump\t// in\n    tag_217:\n        /* \"#utility.yul\":10587:10593   */\n      dup4\n        /* \"#utility.yul\":10580:10644   */\n      sstore\n        /* \"#utility.yul\":10502:10658   */\n      pop\n        /* \"#utility.yul\":10479:10658   */\n    tag_216:\n        /* \"#utility.yul\":10704:10705   */\n      0x01\n        /* \"#utility.yul\":10700:10701   */\n      0x02\n        /* \"#utility.yul\":10692:10698   */\n      dup9\n        /* \"#utility.yul\":10688:10702   */\n      mul\n        /* \"#utility.yul\":10684:10706   */\n      add\n        /* \"#utility.yul\":10678:10682   */\n      dup9\n        /* \"#utility.yul\":10671:10707   */\n      sstore\n        /* \"#utility.yul\":10106:10717   */\n      pop\n      pop\n      pop\n        /* \"#utility.yul\":10069:10956   */\n    tag_208:\n      pop\n        /* \"#utility.yul\":9659:10962   */\n      pop\n      pop\n      pop\n        /* \"#utility.yul\":9567:10962   */\n      pop\n      pop\n      jump\t// out\n        /* \"#utility.yul\":10968:11116   */\n    tag_87:\n        /* \"#utility.yul\":11070:11081   */\n      0x00\n        /* \"#utility.yul\":11107:11110   */\n      dup2\n        /* \"#utility.yul\":11092:11110   */\n      swap1\n      pop\n        /* \"#utility.yul\":10968:11116   */\n      swap3\n      swap2\n      pop\n      pop\n      jump\t// out\n        /* \"#utility.yul\":11122:11512   */\n    tag_88:\n        /* \"#utility.yul\":11228:11231   */\n      0x00\n        /* \"#utility.yul\":11256:11295   */\n      tag_220\n        /* \"#utility.yul\":11289:11294   */\n      dup3\n        /* \"#utility.yul\":11256:11295   */\n      tag_67\n      jump\t// in\n    tag_220:\n        /* \"#utility.yul\":11311:11400   */\n      tag_221\n        /* \"#utility.yul\":11393:11399   */\n      dup2\n        /* \"#utility.yul\":11388:11391   */\n      dup6\n        /* \"#utility.yul\":11311:11400   */\n      tag_87\n      jump\t// in\n    tag_221:\n        /* \"#utility.yul\":11304:11400   */\n      swap4\n      pop\n        /* \"#utility.yul\":11409:11474   */\n      tag_222\n        /* \"#utility.yul\":11467:11473   */\n      dup2\n        /* \"#utility.yul\":11462:11465   */\n      dup6\n        /* \"#utility.yul\":11455:11459   */\n      0x20\n        /* \"#utility.yul\":11448:11453   */\n      dup7\n        /* \"#utility.yul\":11444:11460   */\n      add\n        /* \"#utility.yul\":11409:11474   */\n      tag_69\n      jump\t// in\n    tag_222:\n        /* \"#utility.yul\":11499:11505   */\n      dup1\n        /* \"#utility.yul\":11494:11497   */\n      dup5\n        /* \"#utility.yul\":11490:11506   */\n      add\n        /* \"#utility.yul\":11483:11506   */\n      swap2\n      pop\n        /* \"#utility.yul\":11232:11512   */\n      pop\n        /* \"#utility.yul\":11122:11512   */\n      swap3\n      swap2\n      pop\n      pop\n      jump\t// out\n        /* \"#utility.yul\":11518:11793   */\n    tag_40:\n        /* \"#utility.yul\":11650:11653   */\n      0x00\n        /* \"#utility.yul\":11672:11767   */\n      tag_224\n        /* \"#utility.yul\":11763:11766   */\n      dup3\n        /* \"#utility.yul\":11754:11760   */\n      dup5\n        /* \"#utility.yul\":11672:11767   */\n      tag_88\n      jump\t// in\n    tag_224:\n        /* \"#utility.yul\":11665:11767   */\n      swap2\n      pop\n        /* \"#utility.yul\":11784:11787   */\n      dup2\n        /* \"#utility.yul\":11777:11787   */\n      swap1\n      pop\n        /* \"#utility.yul\":11518:11793   */\n      swap3\n      swap2\n      pop\n      pop\n      jump\t// out\n\n    auxdata: 0xa26469706673582212208531d7becabfba53f7c87140d24f117eeec76bb285416b7a851e16459e2af03064736f6c63430008120033\n}\n",
				"bytecode": {
					"linkReferences": {},
					"object": "608060405234801561001057600080fd5b5061096a806100206000396000f3fe608060405234801561001057600080fd5b50600436106100625760003560e01c80632e64cec11461006757806342c0069714610085578063471f7cdf146100a15780636057361d146100bf5780639e7a13ad146100db578063b2ac62ef1461010c575b600080fd5b61006f61013c565b60405161007c91906102e1565b60405180910390f35b61009f600480360381019061009a9190610482565b610145565b005b6100a96101ce565b6040516100b691906102e1565b60405180910390f35b6100d960048036038101906100d491906104de565b6101d4565b005b6100f560048036038101906100f091906104de565b6101de565b60405161010392919061058a565b60405180910390f35b610126600480360381019061012191906105ba565b61029a565b60405161013391906102e1565b60405180910390f35b60008054905090565b600260405180604001604052808481526020018381525090806001815401808255809150506001900390600052602060002090600202016000909190919091506000820151816000015560208201518160010190816101a4919061080f565b505050816001826040516101b8919061091d565b9081526020016040518091039020819055505050565b60005481565b8060008190555050565b600281815481106101ee57600080fd5b906000526020600020906002020160009150905080600001549080600101805461021790610632565b80601f016020809104026020016040519081016040528092919081815260200182805461024390610632565b80156102905780601f1061026557610100808354040283529160200191610290565b820191906000526020600020905b81548152906001019060200180831161027357829003601f168201915b5050505050905082565b6001818051602081018201805184825260208301602085012081835280955050505050506000915090505481565b6000819050919050565b6102db816102c8565b82525050565b60006020820190506102f660008301846102d2565b92915050565b6000604051905090565b600080fd5b600080fd5b610319816102c8565b811461032457600080fd5b50565b60008135905061033681610310565b92915050565b600080fd5b600080fd5b6000601f19601f8301169050919050565b7f4e487b7100000000000000000000000000000000000000000000000000000000600052604160045260246000fd5b61038f82610346565b810181811067ffffffffffffffff821117156103ae576103ad610357565b5b80604052505050565b60006103c16102fc565b90506103cd8282610386565b919050565b600067ffffffffffffffff8211156103ed576103ec610357565b5b6103f682610346565b9050602081019050919050565b82818337600083830152505050565b6000610425610420846103d2565b6103b7565b90508281526020810184848401111561044157610440610341565b5b61044c848285610403565b509392505050565b600082601f8301126104695761046861033c565b5b8135610479848260208601610412565b91505092915050565b6000806040838503121561049957610498610306565b5b60006104a785828601610327565b925050602083013567ffffffffffffffff8111156104c8576104c761030b565b5b6104d485828601610454565b9150509250929050565b6000602082840312156104f4576104f3610306565b5b600061050284828501610327565b91505092915050565b600081519050919050565b600082825260208201905092915050565b60005b8381101561054557808201518184015260208101905061052a565b60008484015250505050565b600061055c8261050b565b6105668185610516565b9350610576818560208601610527565b61057f81610346565b840191505092915050565b600060408201905061059f60008301856102d2565b81810360208301526105b18184610551565b90509392505050565b6000602082840312156105d0576105cf610306565b5b600082013567ffffffffffffffff8111156105ee576105ed61030b565b5b6105fa84828501610454565b91505092915050565b7f4e487b7100000000000000000000000000000000000000000000000000000000600052602260045260246000fd5b6000600282049050600182168061064a57607f821691505b60208210810361065d5761065c610603565b5b50919050565b60008190508160005260206000209050919050565b60006020601f8301049050919050565b600082821b905092915050565b6000600883026106c57fffffffffffffffffffffffffffffffffffffffffffffffffffffffffffffffff82610688565b6106cf8683610688565b95508019841693508086168417925050509392505050565b6000819050919050565b600061070c610707610702846102c8565b6106e7565b6102c8565b9050919050565b6000819050919050565b610726836106f1565b61073a61073282610713565b848454610695565b825550505050565b600090565b61074f610742565b61075a81848461071d565b505050565b5b8181101561077e57610773600082610747565b600181019050610760565b5050565b601f8211156107c35761079481610663565b61079d84610678565b810160208510156107ac578190505b6107c06107b885610678565b83018261075f565b50505b505050565b600082821c905092915050565b60006107e6600019846008026107c8565b1980831691505092915050565b60006107ff83836107d5565b9150826002028217905092915050565b6108188261050b565b67ffffffffffffffff81111561083157610830610357565b5b61083b8254610632565b610846828285610782565b600060209050601f8311600181146108795760008415610867578287015190505b61087185826107f3565b8655506108d9565b601f19841661088786610663565b60005b828110156108af5784890151825560018201915060208501945060208101905061088a565b868310156108cc57848901516108c8601f8916826107d5565b8355505b6001600288020188555050505b505050505050565b600081905092915050565b60006108f78261050b565b61090181856108e1565b9350610911818560208601610527565b80840191505092915050565b600061092982846108ec565b91508190509291505056fea26469706673582212208531d7becabfba53f7c87140d24f117eeec76bb285416b7a851e16459e2af03064736f6c63430008120033",
					"opcodes": "PUSH1 0x80 PUSH1 0x40 MSTORE CALLVALUE DUP1 ISZERO PUSH2 0x10 JUMPI PUSH1 0x0 DUP1 REVERT JUMPDEST POP PUSH2 0x96A DUP1 PUSH2 0x20 PUSH1 0x0 CODECOPY PUSH1 0x0 RETURN INVALID PUSH1 0x80 PUSH1 0x40 MSTORE CALLVALUE DUP1 ISZERO PUSH2 0x10 JUMPI PUSH1 0x0 DUP1 REVERT JUMPDEST POP PUSH1 0x4 CALLDATASIZE LT PUSH2 0x62 JUMPI PUSH1 0x0 CALLDATALOAD PUSH1 0xE0 SHR DUP1 PUSH4 0x2E64CEC1 EQ PUSH2 0x67 JUMPI DUP1 PUSH4 0x42C00697 EQ PUSH2 0x85 JUMPI DUP1 PUSH4 0x471F7CDF EQ PUSH2 0xA1 JUMPI DUP1 PUSH4 0x6057361D EQ PUSH2 0xBF JUMPI DUP1 PUSH4 0x9E7A13AD EQ PUSH2 0xDB JUMPI DUP1 PUSH4 0xB2AC62EF EQ PUSH2 0x10C JUMPI JUMPDEST PUSH1 0x0 DUP1 REVERT JUMPDEST PUSH2 0x6F PUSH2 0x13C JUMP JUMPDEST PUSH1 0x40 MLOAD PUSH2 0x7C SWAP2 SWAP1 PUSH2 0x2E1 JUMP JUMPDEST PUSH1 0x40 MLOAD DUP1 SWAP2 SUB SWAP1 RETURN JUMPDEST PUSH2 0x9F PUSH1 0x4 DUP1 CALLDATASIZE SUB DUP2 ADD SWAP1 PUSH2 0x9A SWAP2 SWAP1 PUSH2 0x482 JUMP JUMPDEST PUSH2 0x145 JUMP JUMPDEST STOP JUMPDEST PUSH2 0xA9 PUSH2 0x1CE JUMP JUMPDEST PUSH1 0x40 MLOAD PUSH2 0xB6 SWAP2 SWAP1 PUSH2 0x2E1 JUMP JUMPDEST PUSH1 0x40 MLOAD DUP1 SWAP2 SUB SWAP1 RETURN JUMPDEST PUSH2 0xD9 PUSH1 0x4 DUP1 CALLDATASIZE SUB DUP2 ADD SWAP1 PUSH2 0xD4 SWAP2 SWAP1 PUSH2 0x4DE JUMP JUMPDEST PUSH2 0x1D4 JUMP JUMPDEST STOP JUMPDEST PUSH2 0xF5 PUSH1 0x4 DUP1 CALLDATASIZE SUB DUP2 ADD SWAP1 PUSH2 0xF0 SWAP2 SWAP1 PUSH2 0x4DE JUMP JUMPDEST PUSH2 0x1DE JUMP JUMPDEST PUSH1 0x40 MLOAD PUSH2 0x103 SWAP3 SWAP2 SWAP1 PUSH2 0x58A JUMP JUMPDEST PUSH1 0x40 MLOAD DUP1 SWAP2 SUB SWAP1 RETURN JUMPDEST PUSH2 0x126 PUSH1 0x4 DUP1 CALLDATASIZE SUB DUP2 ADD SWAP1 PUSH2 0x121 SWAP2 SWAP1 PUSH2 0x5BA JUMP JUMPDEST PUSH2 0x29A JUMP JUMPDEST PUSH1 0x40 MLOAD PUSH2 0x133 SWAP2 SWAP1 PUSH2 0x2E1 JUMP JUMPDEST PUSH1 0x40 MLOAD DUP1 SWAP2 SUB SWAP1 RETURN JUMPDEST PUSH1 0x0 DUP1 SLOAD SWAP1 POP SWAP1 JUMP JUMPDEST PUSH1 0x2 PUSH1 0x40 MLOAD DUP1 PUSH1 0x40 ADD PUSH1 0x40 MSTORE DUP1 DUP5 DUP2 MSTORE PUSH1 0x20 ADD DUP4 DUP2 MSTORE POP SWAP1 DUP1 PUSH1 0x1 DUP2 SLOAD ADD DUP1 DUP3 SSTORE DUP1 SWAP2 POP POP PUSH1 0x1 SWAP1 SUB SWAP1 PUSH1 0x0 MSTORE PUSH1 0x20 PUSH1 0x0 KECCAK256 SWAP1 PUSH1 0x2 MUL ADD PUSH1 0x0 SWAP1 SWAP2 SWAP1 SWAP2 SWAP1 SWAP2 POP PUSH1 0x0 DUP3 ADD MLOAD DUP2 PUSH1 0x0 ADD SSTORE PUSH1 0x20 DUP3 ADD MLOAD DUP2 PUSH1 0x1 ADD SWAP1 DUP2 PUSH2 0x1A4 SWAP2 SWAP1 PUSH2 0x80F JUMP JUMPDEST POP POP POP DUP2 PUSH1 0x1 DUP3 PUSH1 0x40 MLOAD PUSH2 0x1B8 SWAP2 SWAP1 PUSH2 0x91D JUMP JUMPDEST SWAP1 DUP2 MSTORE PUSH1 0x20 ADD PUSH1 0x40 MLOAD DUP1 SWAP2 SUB SWAP1 KECCAK256 DUP2 SWAP1 SSTORE POP POP POP JUMP JUMPDEST PUSH1 0x0 SLOAD DUP2 JUMP JUMPDEST DUP1 PUSH1 0x0 DUP2 SWAP1 SSTORE POP POP JUMP JUMPDEST PUSH1 0x2 DUP2 DUP2 SLOAD DUP2 LT PUSH2 0x1EE JUMPI PUSH1 0x0 DUP1 REVERT JUMPDEST SWAP1 PUSH1 0x0 MSTORE PUSH1 0x20 PUSH1 0x0 KECCAK256 SWAP1 PUSH1 0x2 MUL ADD PUSH1 0x0 SWAP2 POP SWAP1 POP DUP1 PUSH1 0x0 ADD SLOAD SWAP1 DUP1 PUSH1 0x1 ADD DUP1 SLOAD PUSH2 0x217 SWAP1 PUSH2 0x632 JUMP JUMPDEST DUP1 PUSH1 0x1F ADD PUSH1 0x20 DUP1 SWAP2 DIV MUL PUSH1 0x20 ADD PUSH1 0x40 MLOAD SWAP1 DUP2 ADD PUSH1 0x40 MSTORE DUP1 SWAP3 SWAP2 SWAP1 DUP2 DUP2 MSTORE PUSH1 0x20 ADD DUP3 DUP1 SLOAD PUSH2 0x243 SWAP1 PUSH2 0x632 JUMP JUMPDEST DUP1 ISZERO PUSH2 0x290 JUMPI DUP1 PUSH1 0x1F LT PUSH2 0x265 JUMPI PUSH2 0x100 DUP1 DUP4 SLOAD DIV MUL DUP4 MSTORE SWAP2 PUSH1 0x20 ADD SWAP2 PUSH2 0x290 JUMP JUMPDEST DUP3 ADD SWAP2 SWAP1 PUSH1 0x0 MSTORE PUSH1 0x20 PUSH1 0x0 KECCAK256 SWAP1 JUMPDEST DUP2 SLOAD DUP2 MSTORE SWAP1 PUSH1 0x1 ADD SWAP1 PUSH1 0x20 ADD DUP1 DUP4 GT PUSH2 0x273 JUMPI DUP3 SWAP1 SUB PUSH1 0x1F AND DUP3 ADD SWAP2 JUMPDEST POP POP POP POP POP SWAP1 POP DUP3 JUMP JUMPDEST PUSH1 0x1 DUP2 DUP1 MLOAD PUSH1 0x20 DUP2 ADD DUP3 ADD DUP1 MLOAD DUP5 DUP3 MSTORE PUSH1 0x20 DUP4 ADD PUSH1 0x20 DUP6 ADD KECCAK256 DUP2 DUP4 MSTORE DUP1 SWAP6 POP POP POP POP POP POP PUSH1 0x0 SWAP2 POP SWAP1 POP SLOAD DUP2 JUMP JUMPDEST PUSH1 0x0 DUP2 SWAP1 POP SWAP2 SWAP1 POP JUMP JUMPDEST PUSH2 0x2DB DUP2 PUSH2 0x2C8 JUMP JUMPDEST DUP3 MSTORE POP POP JUMP JUMPDEST PUSH1 0x0 PUSH1 0x20 DUP3 ADD SWAP1 POP PUSH2 0x2F6 PUSH1 0x0 DUP4 ADD DUP5 PUSH2 0x2D2 JUMP JUMPDEST SWAP3 SWAP2 POP POP JUMP JUMPDEST PUSH1 0x0 PUSH1 0x40 MLOAD SWAP1 POP SWAP1 JUMP JUMPDEST PUSH1 0x0 DUP1 REVERT JUMPDEST PUSH1 0x0 DUP1 REVERT JUMPDEST PUSH2 0x319 DUP2 PUSH2 0x2C8 JUMP JUMPDEST DUP2 EQ PUSH2 0x324 JUMPI PUSH1 0x0 DUP1 REVERT JUMPDEST POP JUMP JUMPDEST PUSH1 0x0 DUP2 CALLDATALOAD SWAP1 POP PUSH2 0x336 DUP2 PUSH2 0x310 JUMP JUMPDEST SWAP3 SWAP2 POP POP JUMP JUMPDEST PUSH1 0x0 DUP1 REVERT JUMPDEST PUSH1 0x0 DUP1 REVERT JUMPDEST PUSH1 0x0 PUSH1 0x1F NOT PUSH1 0x1F DUP4 ADD AND SWAP1 POP SWAP2 SWAP1 POP JUMP JUMPDEST PUSH32 0x4E487B7100000000000000000000000000000000000000000000000000000000 PUSH1 0x0 MSTORE PUSH1 0x41 PUSH1 0x4 MSTORE PUSH1 0x24 PUSH1 0x0 REVERT JUMPDEST PUSH2 0x38F DUP3 PUSH2 0x346 JUMP JUMPDEST DUP2 ADD DUP2 DUP2 LT PUSH8 0xFFFFFFFFFFFFFFFF DUP3 GT OR ISZERO PUSH2 0x3AE JUMPI PUSH2 0x3AD PUSH2 0x357 JUMP JUMPDEST JUMPDEST DUP1 PUSH1 0x40 MSTORE POP POP POP JUMP JUMPDEST PUSH1 0x0 PUSH2 0x3C1 PUSH2 0x2FC JUMP JUMPDEST SWAP1 POP PUSH2 0x3CD DUP3 DUP3 PUSH2 0x386 JUMP JUMPDEST SWAP2 SWAP1 POP JUMP JUMPDEST PUSH1 0x0 PUSH8 0xFFFFFFFFFFFFFFFF DUP3 GT ISZERO PUSH2 0x3ED JUMPI PUSH2 0x3EC PUSH2 0x357 JUMP JUMPDEST JUMPDEST PUSH2 0x3F6 DUP3 PUSH2 0x346 JUMP JUMPDEST SWAP1 POP PUSH1 0x20 DUP2 ADD SWAP1 POP SWAP2 SWAP1 POP JUMP JUMPDEST DUP3 DUP2 DUP4 CALLDATACOPY PUSH1 0x0 DUP4 DUP4 ADD MSTORE POP POP POP JUMP JUMPDEST PUSH1 0x0 PUSH2 0x425 PUSH2 0x420 DUP5 PUSH2 0x3D2 JUMP JUMPDEST PUSH2 0x3B7 JUMP JUMPDEST SWAP1 POP DUP3 DUP2 MSTORE PUSH1 0x20 DUP2 ADD DUP5 DUP5 DUP5 ADD GT ISZERO PUSH2 0x441 JUMPI PUSH2 0x440 PUSH2 0x341 JUMP JUMPDEST JUMPDEST PUSH2 0x44C DUP5 DUP3 DUP6 PUSH2 0x403 JUMP JUMPDEST POP SWAP4 SWAP3 POP POP POP JUMP JUMPDEST PUSH1 0x0 DUP3 PUSH1 0x1F DUP4 ADD SLT PUSH2 0x469 JUMPI PUSH2 0x468 PUSH2 0x33C JUMP JUMPDEST JUMPDEST DUP2 CALLDATALOAD PUSH2 0x479 DUP5 DUP3 PUSH1 0x20 DUP7 ADD PUSH2 0x412 JUMP JUMPDEST SWAP2 POP POP SWAP3 SWAP2 POP POP JUMP JUMPDEST PUSH1 0x0 DUP1 PUSH1 0x40 DUP4 DUP6 SUB SLT ISZERO PUSH2 0x499 JUMPI PUSH2 0x498 PUSH2 0x306 JUMP JUMPDEST JUMPDEST PUSH1 0x0 PUSH2 0x4A7 DUP6 DUP3 DUP7 ADD PUSH2 0x327 JUMP JUMPDEST SWAP3 POP POP PUSH1 0x20 DUP4 ADD CALLDATALOAD PUSH8 0xFFFFFFFFFFFFFFFF DUP2 GT ISZERO PUSH2 0x4C8 JUMPI PUSH2 0x4C7 PUSH2 0x30B JUMP JUMPDEST JUMPDEST PUSH2 0x4D4 DUP6 DUP3 DUP7 ADD PUSH2 0x454 JUMP JUMPDEST SWAP2 POP POP SWAP3 POP SWAP3 SWAP1 POP JUMP JUMPDEST PUSH1 0x0 PUSH1 0x20 DUP3 DUP5 SUB SLT ISZERO PUSH2 0x4F4 JUMPI PUSH2 0x4F3 PUSH2 0x306 JUMP JUMPDEST JUMPDEST PUSH1 0x0 PUSH2 0x502 DUP5 DUP3 DUP6 ADD PUSH2 0x327 JUMP JUMPDEST SWAP2 POP POP SWAP3 SWAP2 POP POP JUMP JUMPDEST PUSH1 0x0 DUP2 MLOAD SWAP1 POP SWAP2 SWAP1 POP JUMP JUMPDEST PUSH1 0x0 DUP3 DUP3 MSTORE PUSH1 0x20 DUP3 ADD SWAP1 POP SWAP3 SWAP2 POP POP JUMP JUMPDEST PUSH1 0x0 JUMPDEST DUP4 DUP2 LT ISZERO PUSH2 0x545 JUMPI DUP1 DUP3 ADD MLOAD DUP2 DUP5 ADD MSTORE PUSH1 0x20 DUP2 ADD SWAP1 POP PUSH2 0x52A JUMP JUMPDEST PUSH1 0x0 DUP5 DUP5 ADD MSTORE POP POP POP POP JUMP JUMPDEST PUSH1 0x0 PUSH2 0x55C DUP3 PUSH2 0x50B JUMP JUMPDEST PUSH2 0x566 DUP2 DUP6 PUSH2 0x516 JUMP JUMPDEST SWAP4 POP PUSH2 0x576 DUP2 DUP6 PUSH1 0x20 DUP7 ADD PUSH2 0x527 JUMP JUMPDEST PUSH2 0x57F DUP2 PUSH2 0x346 JUMP JUMPDEST DUP5 ADD SWAP2 POP POP SWAP3 SWAP2 POP POP JUMP JUMPDEST PUSH1 0x0 PUSH1 0x40 DUP3 ADD SWAP1 POP PUSH2 0x59F PUSH1 0x0 DUP4 ADD DUP6 PUSH2 0x2D2 JUMP JUMPDEST DUP2 DUP2 SUB PUSH1 0x20 DUP4 ADD MSTORE PUSH2 0x5B1 DUP2 DUP5 PUSH2 0x551 JUMP JUMPDEST SWAP1 POP SWAP4 SWAP3 POP POP POP JUMP JUMPDEST PUSH1 0x0 PUSH1 0x20 DUP3 DUP5 SUB SLT ISZERO PUSH2 0x5D0 JUMPI PUSH2 0x5CF PUSH2 0x306 JUMP JUMPDEST JUMPDEST PUSH1 0x0 DUP3 ADD CALLDATALOAD PUSH8 0xFFFFFFFFFFFFFFFF DUP2 GT ISZERO PUSH2 0x5EE JUMPI PUSH2 0x5ED PUSH2 0x30B JUMP JUMPDEST JUMPDEST PUSH2 0x5FA DUP5 DUP3 DUP6 ADD PUSH2 0x454 JUMP JUMPDEST SWAP2 POP POP SWAP3 SWAP2 POP POP JUMP JUMPDEST PUSH32 0x4E487B7100000000000000000000000000000000000000000000000000000000 PUSH1 0x0 MSTORE PUSH1 0x22 PUSH1 0x4 MSTORE PUSH1 0x24 PUSH1 0x0 REVERT JUMPDEST PUSH1 0x0 PUSH1 0x2 DUP3 DIV SWAP1 POP PUSH1 0x1 DUP3 AND DUP1 PUSH2 0x64A JUMPI PUSH1 0x7F DUP3 AND SWAP2 POP JUMPDEST PUSH1 0x20 DUP3 LT DUP2 SUB PUSH2 0x65D JUMPI PUSH2 0x65C PUSH2 0x603 JUMP JUMPDEST JUMPDEST POP SWAP2 SWAP1 POP JUMP JUMPDEST PUSH1 0x0 DUP2 SWAP1 POP DUP2 PUSH1 0x0 MSTORE PUSH1 0x20 PUSH1 0x0 KECCAK256 SWAP1 POP SWAP2 SWAP1 POP JUMP JUMPDEST PUSH1 0x0 PUSH1 0x20 PUSH1 0x1F DUP4 ADD DIV SWAP1 POP SWAP2 SWAP1 POP JUMP JUMPDEST PUSH1 0x0 DUP3 DUP3 SHL SWAP1 POP SWAP3 SWAP2 POP POP JUMP JUMPDEST PUSH1 0x0 PUSH1 0x8 DUP4 MUL PUSH2 0x6C5 PUSH32 0xFFFFFFFFFFFFFFFFFFFFFFFFFFFFFFFFFFFFFFFFFFFFFFFFFFFFFFFFFFFFFFFF DUP3 PUSH2 0x688 JUMP JUMPDEST PUSH2 0x6CF DUP7 DUP4 PUSH2 0x688 JUMP JUMPDEST SWAP6 POP DUP1 NOT DUP5 AND SWAP4 POP DUP1 DUP7 AND DUP5 OR SWAP3 POP POP POP SWAP4 SWAP3 POP POP POP JUMP JUMPDEST PUSH1 0x0 DUP2 SWAP1 POP SWAP2 SWAP1 POP JUMP JUMPDEST PUSH1 0x0 PUSH2 0x70C PUSH2 0x707 PUSH2 0x702 DUP5 PUSH2 0x2C8 JUMP JUMPDEST PUSH2 0x6E7 JUMP JUMPDEST PUSH2 0x2C8 JUMP JUMPDEST SWAP1 POP SWAP2 SWAP1 POP JUMP JUMPDEST PUSH1 0x0 DUP2 SWAP1 POP SWAP2 SWAP1 POP JUMP JUMPDEST PUSH2 0x726 DUP4 PUSH2 0x6F1 JUMP JUMPDEST PUSH2 0x73A PUSH2 0x732 DUP3 PUSH2 0x713 JUMP JUMPDEST DUP5 DUP5 SLOAD PUSH2 0x695 JUMP JUMPDEST DUP3 SSTORE POP POP POP POP JUMP JUMPDEST PUSH1 0x0 SWAP1 JUMP JUMPDEST PUSH2 0x74F PUSH2 0x742 JUMP JUMPDEST PUSH2 0x75A DUP2 DUP5 DUP5 PUSH2 0x71D JUMP JUMPDEST POP POP POP JUMP JUMPDEST JUMPDEST DUP2 DUP2 LT ISZERO PUSH2 0x77E JUMPI PUSH2 0x773 PUSH1 0x0 DUP3 PUSH2 0x747 JUMP JUMPDEST PUSH1 0x1 DUP2 ADD SWAP1 POP PUSH2 0x760 JUMP JUMPDEST POP POP JUMP JUMPDEST PUSH1 0x1F DUP3 GT ISZERO PUSH2 0x7C3 JUMPI PUSH2 0x794 DUP2 PUSH2 0x663 JUMP JUMPDEST PUSH2 0x79D DUP5 PUSH2 0x678 JUMP JUMPDEST DUP2 ADD PUSH1 0x20 DUP6 LT ISZERO PUSH2 0x7AC JUMPI DUP2 SWAP1 POP JUMPDEST PUSH2 0x7C0 PUSH2 0x7B8 DUP6 PUSH2 0x678 JUMP JUMPDEST DUP4 ADD DUP3 PUSH2 0x75F JUMP JUMPDEST POP POP JUMPDEST POP POP POP JUMP JUMPDEST PUSH1 0x0 DUP3 DUP3 SHR SWAP1 POP SWAP3 SWAP2 POP POP JUMP JUMPDEST PUSH1 0x0 PUSH2 0x7E6 PUSH1 0x0 NOT DUP5 PUSH1 0x8 MUL PUSH2 0x7C8 JUMP JUMPDEST NOT DUP1 DUP4 AND SWAP2 POP POP SWAP3 SWAP2 POP POP JUMP JUMPDEST PUSH1 0x0 PUSH2 0x7FF DUP4 DUP4 PUSH2 0x7D5 JUMP JUMPDEST SWAP2 POP DUP3 PUSH1 0x2 MUL DUP3 OR SWAP1 POP SWAP3 SWAP2 POP POP JUMP JUMPDEST PUSH2 0x818 DUP3 PUSH2 0x50B JUMP JUMPDEST PUSH8 0xFFFFFFFFFFFFFFFF DUP2 GT ISZERO PUSH2 0x831 JUMPI PUSH2 0x830 PUSH2 0x357 JUMP JUMPDEST JUMPDEST PUSH2 0x83B DUP3 SLOAD PUSH2 0x632 JUMP JUMPDEST PUSH2 0x846 DUP3 DUP3 DUP6 PUSH2 0x782 JUMP JUMPDEST PUSH1 0x0 PUSH1 0x20 SWAP1 POP PUSH1 0x1F DUP4 GT PUSH1 0x1 DUP2 EQ PUSH2 0x879 JUMPI PUSH1 0x0 DUP5 ISZERO PUSH2 0x867 JUMPI DUP3 DUP8 ADD MLOAD SWAP1 POP JUMPDEST PUSH2 0x871 DUP6 DUP3 PUSH2 0x7F3 JUMP JUMPDEST DUP7 SSTORE POP PUSH2 0x8D9 JUMP JUMPDEST PUSH1 0x1F NOT DUP5 AND PUSH2 0x887 DUP7 PUSH2 0x663 JUMP JUMPDEST PUSH1 0x0 JUMPDEST DUP3 DUP2 LT ISZERO PUSH2 0x8AF JUMPI DUP5 DUP10 ADD MLOAD DUP3 SSTORE PUSH1 0x1 DUP3 ADD SWAP2 POP PUSH1 0x20 DUP6 ADD SWAP5 POP PUSH1 0x20 DUP2 ADD SWAP1 POP PUSH2 0x88A JUMP JUMPDEST DUP7 DUP4 LT ISZERO PUSH2 0x8CC JUMPI DUP5 DUP10 ADD MLOAD PUSH2 0x8C8 PUSH1 0x1F DUP10 AND DUP3 PUSH2 0x7D5 JUMP JUMPDEST DUP4 SSTORE POP JUMPDEST PUSH1 0x1 PUSH1 0x2 DUP9 MUL ADD DUP9 SSTORE POP POP POP JUMPDEST POP POP POP POP POP POP JUMP JUMPDEST PUSH1 0x0 DUP2 SWAP1 POP SWAP3 SWAP2 POP POP JUMP JUMPDEST PUSH1 0x0 PUSH2 0x8F7 DUP3 PUSH2 0x50B JUMP JUMPDEST PUSH2 0x901 DUP2 DUP6 PUSH2 0x8E1 JUMP JUMPDEST SWAP4 POP PUSH2 0x911 DUP2 DUP6 PUSH1 0x20 DUP7 ADD PUSH2 0x527 JUMP JUMPDEST DUP1 DUP5 ADD SWAP2 POP POP SWAP3 SWAP2 POP POP JUMP JUMPDEST PUSH1 0x0 PUSH2 0x929 DUP3 DUP5 PUSH2 0x8EC JUMP JUMPDEST SWAP2 POP DUP2 SWAP1 POP SWAP3 SWAP2 POP POP JUMP INVALID LOG2 PUSH5 0x6970667358 0x22 SLT KECCAK256 DUP6 BALANCE 0xD7 0xBE 0xCA 0xBF 0xBA MSTORE8 0xF7 0xC8 PUSH18 0x40D24F117EEEC76BB285416B7A851E16459E 0x2A CREATE ADDRESS PUSH5 0x736F6C6343 STOP ADDMOD SLT STOP CALLER "
				},
				"gasEstimates": {
					"creation": {
						"codeDepositCost": "482000",
						"executionCost": "518",
						"totalCost": "482518"
					},
					"external": {
						"addPeorson(uint256,string)": "infinite",
						"favoriteNumber()": "2451",
						"nameToFavouriteNumber(string)": "infinite",
						"people(uint256)": "infinite",
						"retrieve()": "2415",
						"store(uint256)": "22564"
					}
				},
				"methodIdentifiers": {
					"addPeorson(uint256,string)": "42c00697",
					"favoriteNumber()": "471f7cdf",
					"nameToFavouriteNumber(string)": "b2ac62ef",
					"people(uint256)": "9e7a13ad",
					"retrieve()": "2e64cec1",
					"store(uint256)": "6057361d"
				}
			},
			"storageLayout": {
				"storage": [
					{
						"astId": 3,
						"contract": "contracts/SimpleStorage.sol:SimpleStorage",
						"label": "favoriteNumber",
						"offset": 0,
						"slot": "0",
						"type": "t_uint256"
					},
					{
						"astId": 7,
						"contract": "contracts/SimpleStorage.sol:SimpleStorage",
						"label": "nameToFavouriteNumber",
						"offset": 0,
						"slot": "1",
						"type": "t_mapping(t_string_memory_ptr,t_uint256)"
					},
					{
						"astId": 16,
						"contract": "contracts/SimpleStorage.sol:SimpleStorage",
						"label": "people",
						"offset": 0,
						"slot": "2",
						"type": "t_array(t_struct(People)12_storage)dyn_storage"
					}
				],
				"types": {
					"t_array(t_struct(People)12_storage)dyn_storage": {
						"base": "t_struct(People)12_storage",
						"encoding": "dynamic_array",
						"label": "struct SimpleStorage.People[]",
						"numberOfBytes": "32"
					},
					"t_mapping(t_string_memory_ptr,t_uint256)": {
						"encoding": "mapping",
						"key": "t_string_memory_ptr",
						"label": "mapping(string => uint256)",
						"numberOfBytes": "32",
						"value": "t_uint256"
					},
					"t_string_memory_ptr": {
						"encoding": "bytes",
						"label": "string",
						"numberOfBytes": "32"
					},
					"t_string_storage": {
						"encoding": "bytes",
						"label": "string",
						"numberOfBytes": "32"
					},
					"t_struct(People)12_storage": {
						"encoding": "inplace",
						"label": "struct SimpleStorage.People",
						"members": [
							{
								"astId": 9,
								"contract": "contracts/SimpleStorage.sol:SimpleStorage",
								"label": "favoriteNumber",
								"offset": 0,
								"slot": "0",
								"type": "t_uint256"
							},
							{
								"astId": 11,
								"contract": "contracts/SimpleStorage.sol:SimpleStorage",
								"label": "name",
								"offset": 0,
								"slot": "1",
								"type": "t_string_storage"
							}
						],
						"numberOfBytes": "64"
					},
					"t_uint256": {
						"encoding": "inplace",
						"label": "uint256",
						"numberOfBytes": "32"
					}
				}
			},
			"userdoc": {
				"kind": "user",
				"methods": {},
				"version": 1
			}
		}
	}
}